{"abi":[{"type":"constructor","inputs":[{"name":"_name","type":"string","internalType":"string"},{"name":"_symbol","type":"string","internalType":"string"},{"name":"_eventName","type":"string","internalType":"string"},{"name":"_eventDate","type":"string","internalType":"string"},{"name":"_eventVenue","type":"string","internalType":"string"},{"name":"_maxSupply","type":"uint256","internalType":"uint256"}],"stateMutability":"nonpayable"},{"type":"function","name":"addSalesContract","inputs":[{"name":"salesContract","type":"address","internalType":"address"}],"outputs":[],"stateMutability":"nonpayable"},{"type":"function","name":"allowance","inputs":[{"name":"owner","type":"address","internalType":"address"},{"name":"spender","type":"address","internalType":"address"}],"outputs":[{"name":"","type":"uint256","internalType":"uint256"}],"stateMutability":"view"},{"type":"function","name":"approve","inputs":[{"name":"spender","type":"address","internalType":"address"},{"name":"value","type":"uint256","internalType":"uint256"}],"outputs":[{"name":"","type":"bool","internalType":"bool"}],"stateMutability":"nonpayable"},{"type":"function","name":"availableSupply","inputs":[],"outputs":[{"name":"","type":"uint256","internalType":"uint256"}],"stateMutability":"view"},{"type":"function","name":"balanceOf","inputs":[{"name":"account","type":"address","internalType":"address"}],"outputs":[{"name":"","type":"uint256","internalType":"uint256"}],"stateMutability":"view"},{"type":"function","name":"burn","inputs":[{"name":"from","type":"address","internalType":"address"},{"name":"amount","type":"uint256","internalType":"uint256"}],"outputs":[{"name":"","type":"bool","internalType":"bool"}],"stateMutability":"nonpayable"},{"type":"function","name":"decimals","inputs":[],"outputs":[{"name":"","type":"uint8","internalType":"uint8"}],"stateMutability":"pure"},{"type":"function","name":"eventDate","inputs":[],"outputs":[{"name":"","type":"string","internalType":"string"}],"stateMutability":"view"},{"type":"function","name":"eventName","inputs":[],"outputs":[{"name":"","type":"string","internalType":"string"}],"stateMutability":"view"},{"type":"function","name":"eventVenue","inputs":[],"outputs":[{"name":"","type":"string","internalType":"string"}],"stateMutability":"view"},{"type":"function","name":"maxSupply","inputs":[],"outputs":[{"name":"","type":"uint256","internalType":"uint256"}],"stateMutability":"view"},{"type":"function","name":"mint","inputs":[{"name":"to","type":"address","internalType":"address"},{"name":"amount","type":"uint256","internalType":"uint256"}],"outputs":[{"name":"","type":"bool","internalType":"bool"}],"stateMutability":"nonpayable"},{"type":"function","name":"mintBatch","inputs":[{"name":"to","type":"address","internalType":"address"},{"name":"amount","type":"uint256","internalType":"uint256"}],"outputs":[{"name":"","type":"bool","internalType":"bool"}],"stateMutability":"nonpayable"},{"type":"function","name":"name","inputs":[],"outputs":[{"name":"","type":"string","internalType":"string"}],"stateMutability":"view"},{"type":"function","name":"owner","inputs":[],"outputs":[{"name":"","type":"address","internalType":"address"}],"stateMutability":"view"},{"type":"function","name":"removeSalesContract","inputs":[{"name":"salesContract","type":"address","internalType":"address"}],"outputs":[],"stateMutability":"nonpayable"},{"type":"function","name":"renounceOwnership","inputs":[],"outputs":[],"stateMutability":"nonpayable"},{"type":"function","name":"salesContracts","inputs":[{"name":"","type":"address","internalType":"address"}],"outputs":[{"name":"","type":"bool","internalType":"bool"}],"stateMutability":"view"},{"type":"function","name":"symbol","inputs":[],"outputs":[{"name":"","type":"string","internalType":"string"}],"stateMutability":"view"},{"type":"function","name":"totalSupply","inputs":[],"outputs":[{"name":"","type":"uint256","internalType":"uint256"}],"stateMutability":"view"},{"type":"function","name":"transfer","inputs":[{"name":"to","type":"address","internalType":"address"},{"name":"value","type":"uint256","internalType":"uint256"}],"outputs":[{"name":"","type":"bool","internalType":"bool"}],"stateMutability":"nonpayable"},{"type":"function","name":"transferFrom","inputs":[{"name":"from","type":"address","internalType":"address"},{"name":"to","type":"address","internalType":"address"},{"name":"value","type":"uint256","internalType":"uint256"}],"outputs":[{"name":"","type":"bool","internalType":"bool"}],"stateMutability":"nonpayable"},{"type":"function","name":"transferOwnership","inputs":[{"name":"newOwner","type":"address","internalType":"address"}],"outputs":[],"stateMutability":"nonpayable"},{"type":"event","name":"Approval","inputs":[{"name":"owner","type":"address","indexed":true,"internalType":"address"},{"name":"spender","type":"address","indexed":true,"internalType":"address"},{"name":"value","type":"uint256","indexed":false,"internalType":"uint256"}],"anonymous":false},{"type":"event","name":"OwnershipTransferred","inputs":[{"name":"previousOwner","type":"address","indexed":true,"internalType":"address"},{"name":"newOwner","type":"address","indexed":true,"internalType":"address"}],"anonymous":false},{"type":"event","name":"SalesContractAdded","inputs":[{"name":"salesContract","type":"address","indexed":true,"internalType":"address"}],"anonymous":false},{"type":"event","name":"SalesContractRemoved","inputs":[{"name":"salesContract","type":"address","indexed":true,"internalType":"address"}],"anonymous":false},{"type":"event","name":"Transfer","inputs":[{"name":"from","type":"address","indexed":true,"internalType":"address"},{"name":"to","type":"address","indexed":true,"internalType":"address"},{"name":"value","type":"uint256","indexed":false,"internalType":"uint256"}],"anonymous":false},{"type":"error","name":"ERC20InsufficientAllowance","inputs":[{"name":"spender","type":"address","internalType":"address"},{"name":"allowance","type":"uint256","internalType":"uint256"},{"name":"needed","type":"uint256","internalType":"uint256"}]},{"type":"error","name":"ERC20InsufficientBalance","inputs":[{"name":"sender","type":"address","internalType":"address"},{"name":"balance","type":"uint256","internalType":"uint256"},{"name":"needed","type":"uint256","internalType":"uint256"}]},{"type":"error","name":"ERC20InvalidApprover","inputs":[{"name":"approver","type":"address","internalType":"address"}]},{"type":"error","name":"ERC20InvalidReceiver","inputs":[{"name":"receiver","type":"address","internalType":"address"}]},{"type":"error","name":"ERC20InvalidSender","inputs":[{"name":"sender","type":"address","internalType":"address"}]},{"type":"error","name":"ERC20InvalidSpender","inputs":[{"name":"spender","type":"address","internalType":"address"}]},{"type":"error","name":"OwnableInvalidOwner","inputs":[{"name":"owner","type":"address","internalType":"address"}]},{"type":"error","name":"OwnableUnauthorizedAccount","inputs":[{"name":"account","type":"address","internalType":"address"}]}],"bytecode":{"object":"0x608060405234801561000f575f5ffd5b506040516125d73803806125d78339818101604052810190610031919061035b565b33868681600390816100439190610677565b5080600490816100539190610677565b5050505f73ffffffffffffffffffffffffffffffffffffffff168173ffffffffffffffffffffffffffffffffffffffff16036100c6575f6040517f1e4fbdf70000000000000000000000000000000000000000000000000000000081526004016100bd9190610785565b60405180910390fd5b6100d58161011860201b60201c565b5083600790816100e59190610677565b5082600890816100f59190610677565b5081600990816101059190610677565b5080600a8190555050505050505061079e565b5f60055f9054906101000a900473ffffffffffffffffffffffffffffffffffffffff1690508160055f6101000a81548173ffffffffffffffffffffffffffffffffffffffff021916908373ffffffffffffffffffffffffffffffffffffffff1602179055508173ffffffffffffffffffffffffffffffffffffffff168173ffffffffffffffffffffffffffffffffffffffff167f8be0079c531659141344cd1fd0a4f28419497f9722a3daafe3b4186f6b6457e060405160405180910390a35050565b5f604051905090565b5f5ffd5b5f5ffd5b5f5ffd5b5f5ffd5b5f601f19601f8301169050919050565b7f4e487b71000000000000000000000000000000000000000000000000000000005f52604160045260245ffd5b61023a826101f4565b810181811067ffffffffffffffff8211171561025957610258610204565b5b80604052505050565b5f61026b6101db565b90506102778282610231565b919050565b5f67ffffffffffffffff82111561029657610295610204565b5b61029f826101f4565b9050602081019050919050565b8281835e5f83830152505050565b5f6102cc6102c78461027c565b610262565b9050828152602081018484840111156102e8576102e76101f0565b5b6102f38482856102ac565b509392505050565b5f82601f83011261030f5761030e6101ec565b5b815161031f8482602086016102ba565b91505092915050565b5f819050919050565b61033a81610328565b8114610344575f5ffd5b50565b5f8151905061035581610331565b92915050565b5f5f5f5f5f5f60c08789031215610375576103746101e4565b5b5f87015167ffffffffffffffff811115610392576103916101e8565b5b61039e89828a016102fb565b965050602087015167ffffffffffffffff8111156103bf576103be6101e8565b5b6103cb89828a016102fb565b955050604087015167ffffffffffffffff8111156103ec576103eb6101e8565b5b6103f889828a016102fb565b945050606087015167ffffffffffffffff811115610419576104186101e8565b5b61042589828a016102fb565b935050608087015167ffffffffffffffff811115610446576104456101e8565b5b61045289828a016102fb565b92505060a061046389828a01610347565b9150509295509295509295565b5f81519050919050565b7f4e487b71000000000000000000000000000000000000000000000000000000005f52602260045260245ffd5b5f60028204905060018216806104be57607f821691505b6020821081036104d1576104d061047a565b5b50919050565b5f819050815f5260205f209050919050565b5f6020601f8301049050919050565b5f82821b905092915050565b5f600883026105337fffffffffffffffffffffffffffffffffffffffffffffffffffffffffffffffff826104f8565b61053d86836104f8565b95508019841693508086168417925050509392505050565b5f819050919050565b5f61057861057361056e84610328565b610555565b610328565b9050919050565b5f819050919050565b6105918361055e565b6105a561059d8261057f565b848454610504565b825550505050565b5f5f905090565b6105bc6105ad565b6105c7818484610588565b505050565b5b818110156105ea576105df5f826105b4565b6001810190506105cd565b5050565b601f82111561062f57610600816104d7565b610609846104e9565b81016020851015610618578190505b61062c610624856104e9565b8301826105cc565b50505b505050565b5f82821c905092915050565b5f61064f5f1984600802610634565b1980831691505092915050565b5f6106678383610640565b9150826002028217905092915050565b61068082610470565b67ffffffffffffffff81111561069957610698610204565b5b6106a382546104a7565b6106ae8282856105ee565b5f60209050601f8311600181146106df575f84156106cd578287015190505b6106d7858261065c565b86555061073e565b601f1984166106ed866104d7565b5f5b82811015610714578489015182556001820191506020850194506020810190506106ef565b86831015610731578489015161072d601f891682610640565b8355505b6001600288020188555050505b505050505050565b5f73ffffffffffffffffffffffffffffffffffffffff82169050919050565b5f61076f82610746565b9050919050565b61077f81610765565b82525050565b5f6020820190506107985f830184610776565b92915050565b611e2c806107ab5f395ff3fe608060405234801561000f575f5ffd5b506004361061014b575f3560e01c80637ecc2b56116100c1578063ab287caf1161007a578063ab287caf146103b5578063c70d4736146103e5578063d5abeb0114610401578063dd62ed3e1461041f578063e22bda351461044f578063f2fde38b1461046d5761014b565b80637ecc2b56146102dd5780638043c9c0146102fb5780638da5cb5b1461031957806395d89b41146103375780639dc29fac14610355578063a9059cbb146103855761014b565b8063248b71fc11610113578063248b71fc14610207578063313ce5671461023757806340c10f19146102555780634bfbe5df1461028557806370a08231146102a3578063715018a6146102d35761014b565b8063010b0c8e1461014f57806306fdde031461016b578063095ea7b31461018957806318160ddd146101b957806323b872dd146101d7575b5f5ffd5b6101696004803603810190610164919061170c565b610489565b005b61017361052b565b60405161018091906117a7565b60405180910390f35b6101a3600480360381019061019e91906117fa565b6105bb565b6040516101b09190611852565b60405180910390f35b6101c16105dd565b6040516101ce919061187a565b60405180910390f35b6101f160048036038101906101ec9190611893565b6105e6565b6040516101fe9190611852565b60405180910390f35b610221600480360381019061021c91906117fa565b610614565b60405161022e9190611852565b60405180910390f35b61023f6106f6565b60405161024c91906118fe565b60405180910390f35b61026f600480360381019061026a91906117fa565b6106fd565b60405161027c9190611852565b60405180910390f35b61028d610860565b60405161029a91906117a7565b60405180910390f35b6102bd60048036038101906102b8919061170c565b6108ec565b6040516102ca919061187a565b60405180910390f35b6102db610931565b005b6102e5610944565b6040516102f2919061187a565b60405180910390f35b61030361095f565b60405161031091906117a7565b60405180910390f35b6103216109eb565b60405161032e9190611926565b60405180910390f35b61033f610a13565b60405161034c91906117a7565b60405180910390f35b61036f600480360381019061036a91906117fa565b610aa3565b60405161037c9190611852565b60405180910390f35b61039f600480360381019061039a91906117fa565b610bfa565b6040516103ac9190611852565b60405180910390f35b6103cf60048036038101906103ca919061170c565b610c1c565b6040516103dc9190611852565b60405180910390f35b6103ff60048036038101906103fa919061170c565b610c39565b005b610409610d4a565b604051610416919061187a565b60405180910390f35b6104396004803603810190610434919061193f565b610d50565b604051610446919061187a565b60405180910390f35b610457610dd2565b60405161046491906117a7565b60405180910390f35b6104876004803603810190610482919061170c565b610e5e565b005b610491610ee2565b5f60065f8373ffffffffffffffffffffffffffffffffffffffff1673ffffffffffffffffffffffffffffffffffffffff1681526020019081526020015f205f6101000a81548160ff0219169083151502179055508073ffffffffffffffffffffffffffffffffffffffff167f12a33fb272a5ef7ecb29778ce27ae48a61f1641371e49b34c6dc7b5274aa25a060405160405180910390a250565b60606003805461053a906119aa565b80601f0160208091040260200160405190810160405280929190818152602001828054610566906119aa565b80156105b15780601f10610588576101008083540402835291602001916105b1565b820191905f5260205f20905b81548152906001019060200180831161059457829003601f168201915b5050505050905090565b5f5f6105c5610f69565b90506105d2818585610f70565b600191505092915050565b5f600254905090565b5f5f6105f0610f69565b90506105fd858285610f82565b610608858585611015565b60019150509392505050565b5f61061d610ee2565b5f73ffffffffffffffffffffffffffffffffffffffff168373ffffffffffffffffffffffffffffffffffffffff160361068b576040517f08c379a000000000000000000000000000000000000000000000000000000000815260040161068290611a4a565b60405180910390fd5b600a54826106976105dd565b6106a19190611a95565b11156106e2576040517f08c379a00000000000000000000000000000000000000000000000000000000081526004016106d990611b38565b60405180910390fd5b6106ec8383611105565b6001905092915050565b5f5f905090565b5f60065f3373ffffffffffffffffffffffffffffffffffffffff1673ffffffffffffffffffffffffffffffffffffffff1681526020019081526020015f205f9054906101000a900460ff16610787576040517f08c379a000000000000000000000000000000000000000000000000000000000815260040161077e90611bc6565b60405180910390fd5b5f73ffffffffffffffffffffffffffffffffffffffff168373ffffffffffffffffffffffffffffffffffffffff16036107f5576040517f08c379a00000000000000000000000000000000000000000000000000000000081526004016107ec90611a4a565b60405180910390fd5b600a54826108016105dd565b61080b9190611a95565b111561084c576040517f08c379a000000000000000000000000000000000000000000000000000000000815260040161084390611b38565b60405180910390fd5b6108568383611105565b6001905092915050565b6008805461086d906119aa565b80601f0160208091040260200160405190810160405280929190818152602001828054610899906119aa565b80156108e45780601f106108bb576101008083540402835291602001916108e4565b820191905f5260205f20905b8154815290600101906020018083116108c757829003601f168201915b505050505081565b5f5f5f8373ffffffffffffffffffffffffffffffffffffffff1673ffffffffffffffffffffffffffffffffffffffff1681526020019081526020015f20549050919050565b610939610ee2565b6109425f611184565b565b5f61094d6105dd565b600a5461095a9190611be4565b905090565b6007805461096c906119aa565b80601f0160208091040260200160405190810160405280929190818152602001828054610998906119aa565b80156109e35780601f106109ba576101008083540402835291602001916109e3565b820191905f5260205f20905b8154815290600101906020018083116109c657829003601f168201915b505050505081565b5f60055f9054906101000a900473ffffffffffffffffffffffffffffffffffffffff16905090565b606060048054610a22906119aa565b80601f0160208091040260200160405190810160405280929190818152602001828054610a4e906119aa565b8015610a995780601f10610a7057610100808354040283529160200191610a99565b820191905f5260205f20905b815481529060010190602001808311610a7c57829003601f168201915b5050505050905090565b5f60065f3373ffffffffffffffffffffffffffffffffffffffff1673ffffffffffffffffffffffffffffffffffffffff1681526020019081526020015f205f9054906101000a900460ff16610b2d576040517f08c379a0000000000000000000000000000000000000000000000000000000008152600401610b2490611bc6565b60405180910390fd5b5f73ffffffffffffffffffffffffffffffffffffffff168373ffffffffffffffffffffffffffffffffffffffff1603610b9b576040517f08c379a0000000000000000000000000000000000000000000000000000000008152600401610b9290611c87565b60405180910390fd5b81610ba5846108ec565b1015610be6576040517f08c379a0000000000000000000000000000000000000000000000000000000008152600401610bdd90611d15565b60405180910390fd5b610bf08383611247565b6001905092915050565b5f5f610c04610f69565b9050610c11818585611015565b600191505092915050565b6006602052805f5260405f205f915054906101000a900460ff1681565b610c41610ee2565b5f73ffffffffffffffffffffffffffffffffffffffff168173ffffffffffffffffffffffffffffffffffffffff1603610caf576040517f08c379a0000000000000000000000000000000000000000000000000000000008152600401610ca690611da3565b60405180910390fd5b600160065f8373ffffffffffffffffffffffffffffffffffffffff1673ffffffffffffffffffffffffffffffffffffffff1681526020019081526020015f205f6101000a81548160ff0219169083151502179055508073ffffffffffffffffffffffffffffffffffffffff167f1317b38a200356b331352f7fb7abfaa452faf9c039d21f9ebcc47d7972823bde60405160405180910390a250565b600a5481565b5f60015f8473ffffffffffffffffffffffffffffffffffffffff1673ffffffffffffffffffffffffffffffffffffffff1681526020019081526020015f205f8373ffffffffffffffffffffffffffffffffffffffff1673ffffffffffffffffffffffffffffffffffffffff1681526020019081526020015f2054905092915050565b60098054610ddf906119aa565b80601f0160208091040260200160405190810160405280929190818152602001828054610e0b906119aa565b8015610e565780601f10610e2d57610100808354040283529160200191610e56565b820191905f5260205f20905b815481529060010190602001808311610e3957829003601f168201915b505050505081565b610e66610ee2565b5f73ffffffffffffffffffffffffffffffffffffffff168173ffffffffffffffffffffffffffffffffffffffff1603610ed6575f6040517f1e4fbdf7000000000000000000000000000000000000000000000000000000008152600401610ecd9190611926565b60405180910390fd5b610edf81611184565b50565b610eea610f69565b73ffffffffffffffffffffffffffffffffffffffff16610f086109eb565b73ffffffffffffffffffffffffffffffffffffffff1614610f6757610f2b610f69565b6040517f118cdaa7000000000000000000000000000000000000000000000000000000008152600401610f5e9190611926565b60405180910390fd5b565b5f33905090565b610f7d83838360016112c6565b505050565b5f610f8d8484610d50565b90507fffffffffffffffffffffffffffffffffffffffffffffffffffffffffffffffff81101561100f5781811015611000578281836040517ffb8f41b2000000000000000000000000000000000000000000000000000000008152600401610ff793929190611dc1565b60405180910390fd5b61100e84848484035f6112c6565b5b50505050565b5f73ffffffffffffffffffffffffffffffffffffffff168373ffffffffffffffffffffffffffffffffffffffff1603611085575f6040517f96c6fd1e00000000000000000000000000000000000000000000000000000000815260040161107c9190611926565b60405180910390fd5b5f73ffffffffffffffffffffffffffffffffffffffff168273ffffffffffffffffffffffffffffffffffffffff16036110f5575f6040517fec442f050000000000000000000000000000000000000000000000000000000081526004016110ec9190611926565b60405180910390fd5b611100838383611495565b505050565b5f73ffffffffffffffffffffffffffffffffffffffff168273ffffffffffffffffffffffffffffffffffffffff1603611175575f6040517fec442f0500000000000000000000000000000000000000000000000000000000815260040161116c9190611926565b60405180910390fd5b6111805f8383611495565b5050565b5f60055f9054906101000a900473ffffffffffffffffffffffffffffffffffffffff1690508160055f6101000a81548173ffffffffffffffffffffffffffffffffffffffff021916908373ffffffffffffffffffffffffffffffffffffffff1602179055508173ffffffffffffffffffffffffffffffffffffffff168173ffffffffffffffffffffffffffffffffffffffff167f8be0079c531659141344cd1fd0a4f28419497f9722a3daafe3b4186f6b6457e060405160405180910390a35050565b5f73ffffffffffffffffffffffffffffffffffffffff168273ffffffffffffffffffffffffffffffffffffffff16036112b7575f6040517f96c6fd1e0000000000000000000000000000000000000000000000000000000081526004016112ae9190611926565b60405180910390fd5b6112c2825f83611495565b5050565b5f73ffffffffffffffffffffffffffffffffffffffff168473ffffffffffffffffffffffffffffffffffffffff1603611336575f6040517fe602df0500000000000000000000000000000000000000000000000000000000815260040161132d9190611926565b60405180910390fd5b5f73ffffffffffffffffffffffffffffffffffffffff168373ffffffffffffffffffffffffffffffffffffffff16036113a6575f6040517f94280d6200000000000000000000000000000000000000000000000000000000815260040161139d9190611926565b60405180910390fd5b8160015f8673ffffffffffffffffffffffffffffffffffffffff1673ffffffffffffffffffffffffffffffffffffffff1681526020019081526020015f205f8573ffffffffffffffffffffffffffffffffffffffff1673ffffffffffffffffffffffffffffffffffffffff1681526020019081526020015f2081905550801561148f578273ffffffffffffffffffffffffffffffffffffffff168473ffffffffffffffffffffffffffffffffffffffff167f8c5be1e5ebec7d5bd14f71427d1e84f3dd0314c0f7b2291e5b200ac8c7c3b92584604051611486919061187a565b60405180910390a35b50505050565b5f73ffffffffffffffffffffffffffffffffffffffff168373ffffffffffffffffffffffffffffffffffffffff16036114e5578060025f8282546114d99190611a95565b925050819055506115b3565b5f5f5f8573ffffffffffffffffffffffffffffffffffffffff1673ffffffffffffffffffffffffffffffffffffffff1681526020019081526020015f205490508181101561156e578381836040517fe450d38c00000000000000000000000000000000000000000000000000000000815260040161156593929190611dc1565b60405180910390fd5b8181035f5f8673ffffffffffffffffffffffffffffffffffffffff1673ffffffffffffffffffffffffffffffffffffffff1681526020019081526020015f2081905550505b5f73ffffffffffffffffffffffffffffffffffffffff168273ffffffffffffffffffffffffffffffffffffffff16036115fa578060025f8282540392505081905550611644565b805f5f8473ffffffffffffffffffffffffffffffffffffffff1673ffffffffffffffffffffffffffffffffffffffff1681526020019081526020015f205f82825401925050819055505b8173ffffffffffffffffffffffffffffffffffffffff168373ffffffffffffffffffffffffffffffffffffffff167fddf252ad1be2c89b69c2b068fc378daa952ba7f163c4a11628f55a4df523b3ef836040516116a1919061187a565b60405180910390a3505050565b5f5ffd5b5f73ffffffffffffffffffffffffffffffffffffffff82169050919050565b5f6116db826116b2565b9050919050565b6116eb816116d1565b81146116f5575f5ffd5b50565b5f81359050611706816116e2565b92915050565b5f60208284031215611721576117206116ae565b5b5f61172e848285016116f8565b91505092915050565b5f81519050919050565b5f82825260208201905092915050565b8281835e5f83830152505050565b5f601f19601f8301169050919050565b5f61177982611737565b6117838185611741565b9350611793818560208601611751565b61179c8161175f565b840191505092915050565b5f6020820190508181035f8301526117bf818461176f565b905092915050565b5f819050919050565b6117d9816117c7565b81146117e3575f5ffd5b50565b5f813590506117f4816117d0565b92915050565b5f5f604083850312156118105761180f6116ae565b5b5f61181d858286016116f8565b925050602061182e858286016117e6565b9150509250929050565b5f8115159050919050565b61184c81611838565b82525050565b5f6020820190506118655f830184611843565b92915050565b611874816117c7565b82525050565b5f60208201905061188d5f83018461186b565b92915050565b5f5f5f606084860312156118aa576118a96116ae565b5b5f6118b7868287016116f8565b93505060206118c8868287016116f8565b92505060406118d9868287016117e6565b9150509250925092565b5f60ff82169050919050565b6118f8816118e3565b82525050565b5f6020820190506119115f8301846118ef565b92915050565b611920816116d1565b82525050565b5f6020820190506119395f830184611917565b92915050565b5f5f60408385031215611955576119546116ae565b5b5f611962858286016116f8565b9250506020611973858286016116f8565b9150509250929050565b7f4e487b71000000000000000000000000000000000000000000000000000000005f52602260045260245ffd5b5f60028204905060018216806119c157607f821691505b6020821081036119d4576119d361197d565b5b50919050565b7f4576656e745469636b6574546f6b656e3a206d696e7420746f20746865207a655f8201527f726f206164647265737300000000000000000000000000000000000000000000602082015250565b5f611a34602a83611741565b9150611a3f826119da565b604082019050919050565b5f6020820190508181035f830152611a6181611a28565b9050919050565b7f4e487b71000000000000000000000000000000000000000000000000000000005f52601160045260245ffd5b5f611a9f826117c7565b9150611aaa836117c7565b9250828201905080821115611ac257611ac1611a68565b5b92915050565b7f4576656e745469636b6574546f6b656e3a206d617820737570706c79206578635f8201527f6565646564000000000000000000000000000000000000000000000000000000602082015250565b5f611b22602583611741565b9150611b2d82611ac8565b604082019050919050565b5f6020820190508181035f830152611b4f81611b16565b9050919050565b7f4576656e745469636b6574546f6b656e3a2063616c6c6572206973206e6f74205f8201527f612073616c657320636f6e747261637400000000000000000000000000000000602082015250565b5f611bb0603083611741565b9150611bbb82611b56565b604082019050919050565b5f6020820190508181035f830152611bdd81611ba4565b9050919050565b5f611bee826117c7565b9150611bf9836117c7565b9250828203905081811115611c1157611c10611a68565b5b92915050565b7f4576656e745469636b6574546f6b656e3a206275726e2066726f6d20746865205f8201527f7a65726f20616464726573730000000000000000000000000000000000000000602082015250565b5f611c71602c83611741565b9150611c7c82611c17565b604082019050919050565b5f6020820190508181035f830152611c9e81611c65565b9050919050565b7f4576656e745469636b6574546f6b656e3a206275726e20616d6f756e742065785f8201527f63656564732062616c616e636500000000000000000000000000000000000000602082015250565b5f611cff602d83611741565b9150611d0a82611ca5565b604082019050919050565b5f6020820190508181035f830152611d2c81611cf3565b9050919050565b7f4576656e745469636b6574546f6b656e3a20696e76616c69642073616c6573205f8201527f636f6e7472616374206164647265737300000000000000000000000000000000602082015250565b5f611d8d603083611741565b9150611d9882611d33565b604082019050919050565b5f6020820190508181035f830152611dba81611d81565b9050919050565b5f606082019050611dd45f830186611917565b611de1602083018561186b565b611dee604083018461186b565b94935050505056fea26469706673582212202b680def07112154146c29991ebf9f160e47deddb761d433967d82508812deed64736f6c634300081c0033","linkReferences":{}},"methodIdentifiers":{"addSalesContract(address)":"c70d4736","allowance(address,address)":"dd62ed3e","approve(address,uint256)":"095ea7b3","availableSupply()":"7ecc2b56","balanceOf(address)":"70a08231","burn(address,uint256)":"9dc29fac","decimals()":"313ce567","eventDate()":"4bfbe5df","eventName()":"8043c9c0","eventVenue()":"e22bda35","maxSupply()":"d5abeb01","mint(address,uint256)":"40c10f19","mintBatch(address,uint256)":"248b71fc","name()":"06fdde03","owner()":"8da5cb5b","removeSalesContract(address)":"010b0c8e","renounceOwnership()":"715018a6","salesContracts(address)":"ab287caf","symbol()":"95d89b41","totalSupply()":"18160ddd","transfer(address,uint256)":"a9059cbb","transferFrom(address,address,uint256)":"23b872dd","transferOwnership(address)":"f2fde38b"},"id":25}