{"abi":[{"type":"constructor","inputs":[{"name":"_ticketToken","type":"address","internalType":"address"},{"name":"_ticketPrice","type":"uint256","internalType":"uint256"},{"name":"_salesDuration","type":"uint256","internalType":"uint256"},{"name":"_refundDuration","type":"uint256","internalType":"uint256"}],"stateMutability":"nonpayable"},{"type":"function","name":"availableTickets","inputs":[],"outputs":[{"name":"","type":"uint256","internalType":"uint256"}],"stateMutability":"view"},{"type":"function","name":"buyTickets","inputs":[{"name":"amount","type":"uint256","internalType":"uint256"}],"outputs":[],"stateMutability":"payable"},{"type":"function","name":"extendDeadlines","inputs":[{"name":"newSalesDuration","type":"uint256","internalType":"uint256"},{"name":"newRefundDuration","type":"uint256","internalType":"uint256"}],"outputs":[],"stateMutability":"nonpayable"},{"type":"function","name":"organizer","inputs":[],"outputs":[{"name":"","type":"address","internalType":"address"}],"stateMutability":"view"},{"type":"function","name":"purchaseTimes","inputs":[{"name":"","type":"address","internalType":"address"}],"outputs":[{"name":"","type":"uint256","internalType":"uint256"}],"stateMutability":"view"},{"type":"function","name":"purchases","inputs":[{"name":"","type":"address","internalType":"address"}],"outputs":[{"name":"","type":"uint256","internalType":"uint256"}],"stateMutability":"view"},{"type":"function","name":"refundEndTime","inputs":[],"outputs":[{"name":"","type":"uint256","internalType":"uint256"}],"stateMutability":"view"},{"type":"function","name":"refundTickets","inputs":[{"name":"amount","type":"uint256","internalType":"uint256"}],"outputs":[],"stateMutability":"nonpayable"},{"type":"function","name":"remainingRefundTime","inputs":[],"outputs":[{"name":"","type":"uint256","internalType":"uint256"}],"stateMutability":"view"},{"type":"function","name":"remainingSalesTime","inputs":[],"outputs":[{"name":"","type":"uint256","internalType":"uint256"}],"stateMutability":"view"},{"type":"function","name":"salesEndTime","inputs":[],"outputs":[{"name":"","type":"uint256","internalType":"uint256"}],"stateMutability":"view"},{"type":"function","name":"salesPaused","inputs":[],"outputs":[{"name":"","type":"bool","internalType":"bool"}],"stateMutability":"view"},{"type":"function","name":"ticketPrice","inputs":[],"outputs":[{"name":"","type":"uint256","internalType":"uint256"}],"stateMutability":"view"},{"type":"function","name":"ticketToken","inputs":[],"outputs":[{"name":"","type":"address","internalType":"contract EventTicketToken"}],"stateMutability":"view"},{"type":"function","name":"toggleSales","inputs":[{"name":"paused","type":"bool","internalType":"bool"}],"outputs":[],"stateMutability":"nonpayable"},{"type":"function","name":"totalSold","inputs":[],"outputs":[{"name":"","type":"uint256","internalType":"uint256"}],"stateMutability":"view"},{"type":"function","name":"updateTicketPrice","inputs":[{"name":"newPrice","type":"uint256","internalType":"uint256"}],"outputs":[],"stateMutability":"nonpayable"},{"type":"function","name":"withdrawFunds","inputs":[],"outputs":[],"stateMutability":"nonpayable"},{"type":"event","name":"DeadlineExtended","inputs":[{"name":"newSalesEndTime","type":"uint256","indexed":false,"internalType":"uint256"},{"name":"newRefundEndTime","type":"uint256","indexed":false,"internalType":"uint256"}],"anonymous":false},{"type":"event","name":"PriceUpdated","inputs":[{"name":"newPrice","type":"uint256","indexed":false,"internalType":"uint256"}],"anonymous":false},{"type":"event","name":"SalesPaused","inputs":[{"name":"paused","type":"bool","indexed":false,"internalType":"bool"}],"anonymous":false},{"type":"event","name":"TicketsPurchased","inputs":[{"name":"buyer","type":"address","indexed":true,"internalType":"address"},{"name":"amount","type":"uint256","indexed":false,"internalType":"uint256"},{"name":"totalPrice","type":"uint256","indexed":false,"internalType":"uint256"}],"anonymous":false},{"type":"event","name":"TicketsRefunded","inputs":[{"name":"buyer","type":"address","indexed":true,"internalType":"address"},{"name":"amount","type":"uint256","indexed":false,"internalType":"uint256"},{"name":"refundAmount","type":"uint256","indexed":false,"internalType":"uint256"}],"anonymous":false}],"bytecode":{"object":"0x608060405234801561000f575f5ffd5b5060405161251438038061251483398181016040528101906100319190610269565b5f73ffffffffffffffffffffffffffffffffffffffff168473ffffffffffffffffffffffffffffffffffffffff160361009f576040517f08c379a00000000000000000000000000000000000000000000000000000000081526004016100969061034d565b60405180910390fd5b5f83116100e1576040517f08c379a00000000000000000000000000000000000000000000000000000000081526004016100d8906103db565b60405180910390fd5b5f8211610123576040517f08c379a000000000000000000000000000000000000000000000000000000000815260040161011a90610469565b60405180910390fd5b835f5f6101000a81548173ffffffffffffffffffffffffffffffffffffffff021916908373ffffffffffffffffffffffffffffffffffffffff1602179055503360015f6101000a81548173ffffffffffffffffffffffffffffffffffffffff021916908373ffffffffffffffffffffffffffffffffffffffff1602179055508260028190555081426101b591906104b4565b600381905550806003546101c991906104b4565b600481905550505050506104e7565b5f5ffd5b5f73ffffffffffffffffffffffffffffffffffffffff82169050919050565b5f610205826101dc565b9050919050565b610215816101fb565b811461021f575f5ffd5b50565b5f815190506102308161020c565b92915050565b5f819050919050565b61024881610236565b8114610252575f5ffd5b50565b5f815190506102638161023f565b92915050565b5f5f5f5f60808587031215610281576102806101d8565b5b5f61028e87828801610222565b945050602061029f87828801610255565b93505060406102b087828801610255565b92505060606102c187828801610255565b91505092959194509250565b5f82825260208201905092915050565b7f4576656e745469636b657453616c65733a20696e76616c696420746f6b656e205f8201527f6164647265737300000000000000000000000000000000000000000000000000602082015250565b5f6103376027836102cd565b9150610342826102dd565b604082019050919050565b5f6020820190508181035f8301526103648161032b565b9050919050565b7f4576656e745469636b657453616c65733a207469636b6574207072696365206d5f8201527f7573742062652067726561746572207468616e207a65726f0000000000000000602082015250565b5f6103c56038836102cd565b91506103d08261036b565b604082019050919050565b5f6020820190508181035f8301526103f2816103b9565b9050919050565b7f4576656e745469636b657453616c65733a2073616c6573206475726174696f6e5f8201527f206d7573742062652067726561746572207468616e207a65726f000000000000602082015250565b5f610453603a836102cd565b915061045e826103f9565b604082019050919050565b5f6020820190508181035f83015261048081610447565b9050919050565b7f4e487b71000000000000000000000000000000000000000000000000000000005f52601160045260245ffd5b5f6104be82610236565b91506104c983610236565b92508282019050808211156104e1576104e0610487565b5b92915050565b612020806104f45f395ff3fe608060405260043610610108575f3560e01c806361203265116100945780639106d7ba116100635780639106d7ba1461032a578063b6b9766414610354578063ce2755621461037e578063d5ed4d5a146103a8578063f02137c8146103d257610108565b8063612032651461027257806373fddd161461029c578063773dd66c146102c6578063842a77d3146102ee57610108565b806315de26f0116100db57806315de26f0146101b257806324600fc3146101ee5780632f366637146102045780633cfa7e01146102205780634058db2e1461024a57610108565b80630612e5111461010c578063069a0523146101365780630a73f8e0146101605780631209b1f614610188575b5f5ffd5b348015610117575f5ffd5b506101206103fa565b60405161012d919061128b565b60405180910390f35b348015610141575f5ffd5b5061014a610420565b604051610157919061128b565b60405180910390f35b34801561016b575f5ffd5b50610186600480360381019061018191906112dd565b610426565b005b348015610193575f5ffd5b5061019c610508565b6040516101a9919061128b565b60405180910390f35b3480156101bd575f5ffd5b506101d860048036038101906101d39190611362565b61050e565b6040516101e5919061128b565b60405180910390f35b3480156101f9575f5ffd5b50610202610523565b005b61021e600480360381019061021991906113b7565b610709565b005b34801561022b575f5ffd5b50610234610aa9565b604051610241919061128b565b60405180910390f35b348015610255575f5ffd5b50610270600480360381019061026b91906113e2565b610b47565b005b34801561027d575f5ffd5b50610286610c7f565b604051610293919061142f565b60405180910390f35b3480156102a7575f5ffd5b506102b0610ca4565b6040516102bd919061128b565b60405180910390f35b3480156102d1575f5ffd5b506102ec60048036038101906102e791906113b7565b610caa565b005b3480156102f9575f5ffd5b50610314600480360381019061030f9190611362565b6110ea565b604051610321919061128b565b60405180910390f35b348015610335575f5ffd5b5061033e6110ff565b60405161034b919061128b565b60405180910390f35b34801561035f575f5ffd5b50610368611105565b6040516103759190611457565b60405180910390f35b348015610389575f5ffd5b50610392611117565b60405161039f919061128b565b60405180910390f35b3480156103b3575f5ffd5b506103bc61113d565b6040516103c991906114cb565b60405180910390f35b3480156103dd575f5ffd5b506103f860048036038101906103f391906113b7565b611161565b005b5f600454421061040c575f905061041d565b4260045461041a9190611511565b90505b90565b60035481565b60015f9054906101000a900473ffffffffffffffffffffffffffffffffffffffff1673ffffffffffffffffffffffffffffffffffffffff163373ffffffffffffffffffffffffffffffffffffffff16146104b5576040517f08c379a00000000000000000000000000000000000000000000000000000000081526004016104ac906115c4565b60405180910390fd5b8060055f6101000a81548160ff0219169083151502179055507f946daf4cb810fc46854501a3633cf3a64f661faa78a8da7a74d30bb563c14372816040516104fd9190611457565b60405180910390a150565b60025481565b6007602052805f5260405f205f915090505481565b60015f9054906101000a900473ffffffffffffffffffffffffffffffffffffffff1673ffffffffffffffffffffffffffffffffffffffff163373ffffffffffffffffffffffffffffffffffffffff16146105b2576040517f08c379a00000000000000000000000000000000000000000000000000000000081526004016105a9906115c4565b60405180910390fd5b60045442116105f6576040517f08c379a00000000000000000000000000000000000000000000000000000000081526004016105ed90611652565b60405180910390fd5b5f4790505f811161063c576040517f08c379a0000000000000000000000000000000000000000000000000000000008152600401610633906116e0565b60405180910390fd5b5f60015f9054906101000a900473ffffffffffffffffffffffffffffffffffffffff1673ffffffffffffffffffffffffffffffffffffffff16826040516106829061172b565b5f6040518083038185875af1925050503d805f81146106bc576040519150601f19603f3d011682016040523d82523d5f602084013e6106c1565b606091505b5050905080610705576040517f08c379a00000000000000000000000000000000000000000000000000000000081526004016106fc906117af565b60405180910390fd5b5050565b60055f9054906101000a900460ff1615610758576040517f08c379a000000000000000000000000000000000000000000000000000000000815260040161074f9061183d565b60405180910390fd5b60035442111561079d576040517f08c379a0000000000000000000000000000000000000000000000000000000008152600401610794906118cb565b60405180910390fd5b5f81116107df576040517f08c379a00000000000000000000000000000000000000000000000000000000081526004016107d690611959565b60405180910390fd5b806002546107ed9190611977565b341461082e576040517f08c379a000000000000000000000000000000000000000000000000000000000815260040161082590611a28565b60405180910390fd5b5f5f5f9054906101000a900473ffffffffffffffffffffffffffffffffffffffff1673ffffffffffffffffffffffffffffffffffffffff166370a08231306040518263ffffffff1660e01b8152600401610888919061142f565b602060405180830381865afa1580156108a3573d5f5f3e3d5ffd5b505050506040513d601f19601f820116820180604052508101906108c79190611a5a565b90508082111561090c576040517f08c379a000000000000000000000000000000000000000000000000000000000815260040161090390611af5565b60405180910390fd5b5f5f9054906101000a900473ffffffffffffffffffffffffffffffffffffffff1673ffffffffffffffffffffffffffffffffffffffff1663a9059cbb33846040518363ffffffff1660e01b8152600401610967929190611b13565b6020604051808303815f875af1158015610983573d5f5f3e3d5ffd5b505050506040513d601f19601f820116820180604052508101906109a79190611b4e565b508160065f3373ffffffffffffffffffffffffffffffffffffffff1673ffffffffffffffffffffffffffffffffffffffff1681526020019081526020015f205f8282546109f49190611b79565b925050819055504260075f3373ffffffffffffffffffffffffffffffffffffffff1673ffffffffffffffffffffffffffffffffffffffff1681526020019081526020015f20819055508160085f828254610a4e9190611b79565b925050819055503373ffffffffffffffffffffffffffffffffffffffff167f7d58f5ddf17a7f65d89554f5d8144ae1dc788046467927063c090f92ed1145dc8334604051610a9d929190611bac565b60405180910390a25050565b5f5f5f9054906101000a900473ffffffffffffffffffffffffffffffffffffffff1673ffffffffffffffffffffffffffffffffffffffff166370a08231306040518263ffffffff1660e01b8152600401610b03919061142f565b602060405180830381865afa158015610b1e573d5f5f3e3d5ffd5b505050506040513d601f19601f82011682018060405250810190610b429190611a5a565b905090565b60015f9054906101000a900473ffffffffffffffffffffffffffffffffffffffff1673ffffffffffffffffffffffffffffffffffffffff163373ffffffffffffffffffffffffffffffffffffffff1614610bd6576040517f08c379a0000000000000000000000000000000000000000000000000000000008152600401610bcd906115c4565b60405180910390fd5b5f8211610c18576040517f08c379a0000000000000000000000000000000000000000000000000000000008152600401610c0f90611c43565b60405180910390fd5b8142610c249190611b79565b60038190555080600354610c389190611b79565b6004819055507f073d5fd87a7e0c2a384727f9aab2e84826370623aba582638b425a417e799a2c600354600454604051610c73929190611bac565b60405180910390a15050565b60015f9054906101000a900473ffffffffffffffffffffffffffffffffffffffff1681565b60045481565b600454421115610cef576040517f08c379a0000000000000000000000000000000000000000000000000000000008152600401610ce690611cd1565b60405180910390fd5b5f8111610d31576040517f08c379a0000000000000000000000000000000000000000000000000000000008152600401610d2890611959565b60405180910390fd5b5f5f5f9054906101000a900473ffffffffffffffffffffffffffffffffffffffff1673ffffffffffffffffffffffffffffffffffffffff166370a08231336040518263ffffffff1660e01b8152600401610d8b919061142f565b602060405180830381865afa158015610da6573d5f5f3e3d5ffd5b505050506040513d601f19601f82011682018060405250810190610dca9190611a5a565b905081811015610e0f576040517f08c379a0000000000000000000000000000000000000000000000000000000008152600401610e0690611d5f565b60405180910390fd5b8160065f3373ffffffffffffffffffffffffffffffffffffffff1673ffffffffffffffffffffffffffffffffffffffff1681526020019081526020015f20541015610e8f576040517f08c379a0000000000000000000000000000000000000000000000000000000008152600401610e8690611ded565b60405180910390fd5b5f82600254610e9e9190611977565b905080471015610ee3576040517f08c379a0000000000000000000000000000000000000000000000000000000008152600401610eda90611e7b565b60405180910390fd5b5f5f9054906101000a900473ffffffffffffffffffffffffffffffffffffffff1673ffffffffffffffffffffffffffffffffffffffff166323b872dd3330866040518463ffffffff1660e01b8152600401610f4093929190611e99565b6020604051808303815f875af1158015610f5c573d5f5f3e3d5ffd5b505050506040513d601f19601f82011682018060405250810190610f809190611b4e565b508260065f3373ffffffffffffffffffffffffffffffffffffffff1673ffffffffffffffffffffffffffffffffffffffff1681526020019081526020015f205f828254610fcd9190611511565b925050819055508260085f828254610fe59190611511565b925050819055505f3373ffffffffffffffffffffffffffffffffffffffff16826040516110119061172b565b5f6040518083038185875af1925050503d805f811461104b576040519150601f19603f3d011682016040523d82523d5f602084013e611050565b606091505b5050905080611094576040517f08c379a000000000000000000000000000000000000000000000000000000000815260040161108b90611f3e565b60405180910390fd5b3373ffffffffffffffffffffffffffffffffffffffff167fb68b407f453fcecb73fe5800caeff134e48073e9d9fdd6f26976c584c9deaf0785846040516110dc929190611bac565b60405180910390a250505050565b6006602052805f5260405f205f915090505481565b60085481565b60055f9054906101000a900460ff1681565b5f6003544210611129575f905061113a565b426003546111379190611511565b90505b90565b5f5f9054906101000a900473ffffffffffffffffffffffffffffffffffffffff1681565b60015f9054906101000a900473ffffffffffffffffffffffffffffffffffffffff1673ffffffffffffffffffffffffffffffffffffffff163373ffffffffffffffffffffffffffffffffffffffff16146111f0576040517f08c379a00000000000000000000000000000000000000000000000000000000081526004016111e7906115c4565b60405180910390fd5b5f8111611232576040517f08c379a000000000000000000000000000000000000000000000000000000000815260040161122990611fcc565b60405180910390fd5b806002819055507f66cbca4f3c64fecf1dcb9ce094abcf7f68c3450a1d4e3a8e917dd621edb4ebe081604051611268919061128b565b60405180910390a150565b5f819050919050565b61128581611273565b82525050565b5f60208201905061129e5f83018461127c565b92915050565b5f5ffd5b5f8115159050919050565b6112bc816112a8565b81146112c6575f5ffd5b50565b5f813590506112d7816112b3565b92915050565b5f602082840312156112f2576112f16112a4565b5b5f6112ff848285016112c9565b91505092915050565b5f73ffffffffffffffffffffffffffffffffffffffff82169050919050565b5f61133182611308565b9050919050565b61134181611327565b811461134b575f5ffd5b50565b5f8135905061135c81611338565b92915050565b5f60208284031215611377576113766112a4565b5b5f6113848482850161134e565b91505092915050565b61139681611273565b81146113a0575f5ffd5b50565b5f813590506113b18161138d565b92915050565b5f602082840312156113cc576113cb6112a4565b5b5f6113d9848285016113a3565b91505092915050565b5f5f604083850312156113f8576113f76112a4565b5b5f611405858286016113a3565b9250506020611416858286016113a3565b9150509250929050565b61142981611327565b82525050565b5f6020820190506114425f830184611420565b92915050565b611451816112a8565b82525050565b5f60208201905061146a5f830184611448565b92915050565b5f819050919050565b5f61149361148e61148984611308565b611470565b611308565b9050919050565b5f6114a482611479565b9050919050565b5f6114b58261149a565b9050919050565b6114c5816114ab565b82525050565b5f6020820190506114de5f8301846114bc565b92915050565b7f4e487b71000000000000000000000000000000000000000000000000000000005f52601160045260245ffd5b5f61151b82611273565b915061152683611273565b925082820390508181111561153e5761153d6114e4565b5b92915050565b5f82825260208201905092915050565b7f4576656e745469636b657453616c65733a2063616c6c6572206973206e6f74205f8201527f746865206f7267616e697a657200000000000000000000000000000000000000602082015250565b5f6115ae602d83611544565b91506115b982611554565b604082019050919050565b5f6020820190508181035f8301526115db816115a2565b9050919050565b7f4576656e745469636b657453616c65733a2063616e6e6f7420776974686472615f8201527f77206265666f726520726566756e6420706572696f6420656e64730000000000602082015250565b5f61163c603b83611544565b9150611647826115e2565b604082019050919050565b5f6020820190508181035f83015261166981611630565b9050919050565b7f4576656e745469636b657453616c65733a206e6f2066756e647320746f2077695f8201527f7468647261770000000000000000000000000000000000000000000000000000602082015250565b5f6116ca602683611544565b91506116d582611670565b604082019050919050565b5f6020820190508181035f8301526116f7816116be565b9050919050565b5f81905092915050565b50565b5f6117165f836116fe565b915061172182611708565b5f82019050919050565b5f6117358261170b565b9150819050919050565b7f4576656e745469636b657453616c65733a207769746864726177616c206661695f8201527f6c65640000000000000000000000000000000000000000000000000000000000602082015250565b5f611799602383611544565b91506117a48261173f565b604082019050919050565b5f6020820190508181035f8301526117c68161178d565b9050919050565b7f4576656e745469636b657453616c65733a2073616c65732061726520706175735f8201527f6564000000000000000000000000000000000000000000000000000000000000602082015250565b5f611827602283611544565b9150611832826117cd565b604082019050919050565b5f6020820190508181035f8301526118548161181b565b9050919050565b7f4576656e745469636b657453616c65733a2073616c657320706572696f6420685f8201527f617320656e646564000000000000000000000000000000000000000000000000602082015250565b5f6118b5602883611544565b91506118c08261185b565b604082019050919050565b5f6020820190508181035f8301526118e2816118a9565b9050919050565b7f4576656e745469636b657453616c65733a20616d6f756e74206d7573742062655f8201527f2067726561746572207468616e207a65726f0000000000000000000000000000602082015250565b5f611943603283611544565b915061194e826118e9565b604082019050919050565b5f6020820190508181035f83015261197081611937565b9050919050565b5f61198182611273565b915061198c83611273565b925082820261199a81611273565b915082820484148315176119b1576119b06114e4565b5b5092915050565b7f4576656e745469636b657453616c65733a20696e636f727265637420455448205f8201527f616d6f756e742073656e74000000000000000000000000000000000000000000602082015250565b5f611a12602b83611544565b9150611a1d826119b8565b604082019050919050565b5f6020820190508181035f830152611a3f81611a06565b9050919050565b5f81519050611a548161138d565b92915050565b5f60208284031215611a6f57611a6e6112a4565b5b5f611a7c84828501611a46565b91505092915050565b7f4576656e745469636b657453616c65733a206e6f7420656e6f756768207469635f8201527f6b65747320617661696c61626c65000000000000000000000000000000000000602082015250565b5f611adf602e83611544565b9150611aea82611a85565b604082019050919050565b5f6020820190508181035f830152611b0c81611ad3565b9050919050565b5f604082019050611b265f830185611420565b611b33602083018461127c565b9392505050565b5f81519050611b48816112b3565b92915050565b5f60208284031215611b6357611b626112a4565b5b5f611b7084828501611b3a565b91505092915050565b5f611b8382611273565b9150611b8e83611273565b9250828201905080821115611ba657611ba56114e4565b5b92915050565b5f604082019050611bbf5f83018561127c565b611bcc602083018461127c565b9392505050565b7f4576656e745469636b657453616c65733a206e65772073616c657320647572615f8201527f74696f6e206d7573742062652067726561746572207468616e207a65726f0000602082015250565b5f611c2d603e83611544565b9150611c3882611bd3565b604082019050919050565b5f6020820190508181035f830152611c5a81611c21565b9050919050565b7f4576656e745469636b657453616c65733a20726566756e6420706572696f64205f8201527f68617320656e6465640000000000000000000000000000000000000000000000602082015250565b5f611cbb602983611544565b9150611cc682611c61565b604082019050919050565b5f6020820190508181035f830152611ce881611caf565b9050919050565b7f4576656e745469636b657453616c65733a206e6f7420656e6f756768207469635f8201527f6b65747320746f20726566756e64000000000000000000000000000000000000602082015250565b5f611d49602e83611544565b9150611d5482611cef565b604082019050919050565b5f6020820190508181035f830152611d7681611d3d565b9050919050565b7f4576656e745469636b657453616c65733a20796f752063616e206f6e6c7920725f8201527f6566756e64207469636b65747320796f75207075726368617365640000000000602082015250565b5f611dd7603b83611544565b9150611de282611d7d565b604082019050919050565b5f6020820190508181035f830152611e0481611dcb565b9050919050565b7f4576656e745469636b657453616c65733a20696e73756666696369656e7420635f8201527f6f6e74726163742062616c616e636520666f7220726566756e64000000000000602082015250565b5f611e65603a83611544565b9150611e7082611e0b565b604082019050919050565b5f6020820190508181035f830152611e9281611e59565b9050919050565b5f606082019050611eac5f830186611420565b611eb96020830185611420565b611ec6604083018461127c565b949350505050565b7f4576656e745469636b657453616c65733a20726566756e64207472616e7366655f8201527f72206661696c6564000000000000000000000000000000000000000000000000602082015250565b5f611f28602883611544565b9150611f3382611ece565b604082019050919050565b5f6020820190508181035f830152611f5581611f1c565b9050919050565b7f4576656e745469636b657453616c65733a207469636b6574207072696365206d5f8201527f7573742062652067726561746572207468616e207a65726f0000000000000000602082015250565b5f611fb6603883611544565b9150611fc182611f5c565b604082019050919050565b5f6020820190508181035f830152611fe381611faa565b905091905056fea264697066735822122038634bab363b6e16800a9e0faf40d79a0e55630ff6549b7b45a87f675bdd3a1964736f6c634300081c0033","linkReferences":{}},"methodIdentifiers":{"availableTickets()":"3cfa7e01","buyTickets(uint256)":"2f366637","extendDeadlines(uint256,uint256)":"4058db2e","organizer()":"61203265","purchaseTimes(address)":"15de26f0","purchases(address)":"842a77d3","refundEndTime()":"73fddd16","refundTickets(uint256)":"773dd66c","remainingRefundTime()":"0612e511","remainingSalesTime()":"ce275562","salesEndTime()":"069a0523","salesPaused()":"b6b97664","ticketPrice()":"1209b1f6","ticketToken()":"d5ed4d5a","toggleSales(bool)":"0a73f8e0","totalSold()":"9106d7ba","updateTicketPrice(uint256)":"f02137c8","withdrawFunds()":"24600fc3"},"id":28}