{"abi":[{"type":"constructor","inputs":[{"name":"_name","type":"string","internalType":"string"},{"name":"_symbol","type":"string","internalType":"string"},{"name":"_eventName","type":"string","internalType":"string"},{"name":"_eventDate","type":"string","internalType":"string"},{"name":"_eventVenue","type":"string","internalType":"string"},{"name":"_maxSupply","type":"uint256","internalType":"uint256"}],"stateMutability":"nonpayable"},{"type":"function","name":"addRedemptionAgent","inputs":[{"name":"agent","type":"address","internalType":"address"}],"outputs":[],"stateMutability":"nonpayable"},{"type":"function","name":"addSalesContract","inputs":[{"name":"salesContract","type":"address","internalType":"address"}],"outputs":[],"stateMutability":"nonpayable"},{"type":"function","name":"allowance","inputs":[{"name":"owner","type":"address","internalType":"address"},{"name":"spender","type":"address","internalType":"address"}],"outputs":[{"name":"","type":"uint256","internalType":"uint256"}],"stateMutability":"view"},{"type":"function","name":"approve","inputs":[{"name":"spender","type":"address","internalType":"address"},{"name":"value","type":"uint256","internalType":"uint256"}],"outputs":[{"name":"","type":"bool","internalType":"bool"}],"stateMutability":"nonpayable"},{"type":"function","name":"availableSupply","inputs":[],"outputs":[{"name":"","type":"uint256","internalType":"uint256"}],"stateMutability":"view"},{"type":"function","name":"balanceOf","inputs":[{"name":"account","type":"address","internalType":"address"}],"outputs":[{"name":"","type":"uint256","internalType":"uint256"}],"stateMutability":"view"},{"type":"function","name":"burn","inputs":[{"name":"from","type":"address","internalType":"address"},{"name":"amount","type":"uint256","internalType":"uint256"}],"outputs":[{"name":"","type":"bool","internalType":"bool"}],"stateMutability":"nonpayable"},{"type":"function","name":"decimals","inputs":[],"outputs":[{"name":"","type":"uint8","internalType":"uint8"}],"stateMutability":"pure"},{"type":"function","name":"eventDate","inputs":[],"outputs":[{"name":"","type":"string","internalType":"string"}],"stateMutability":"view"},{"type":"function","name":"eventName","inputs":[],"outputs":[{"name":"","type":"string","internalType":"string"}],"stateMutability":"view"},{"type":"function","name":"eventVenue","inputs":[],"outputs":[{"name":"","type":"string","internalType":"string"}],"stateMutability":"view"},{"type":"function","name":"maxSupply","inputs":[],"outputs":[{"name":"","type":"uint256","internalType":"uint256"}],"stateMutability":"view"},{"type":"function","name":"mint","inputs":[{"name":"to","type":"address","internalType":"address"},{"name":"amount","type":"uint256","internalType":"uint256"}],"outputs":[{"name":"","type":"bool","internalType":"bool"}],"stateMutability":"nonpayable"},{"type":"function","name":"mintBatch","inputs":[{"name":"to","type":"address","internalType":"address"},{"name":"amount","type":"uint256","internalType":"uint256"}],"outputs":[{"name":"","type":"bool","internalType":"bool"}],"stateMutability":"nonpayable"},{"type":"function","name":"name","inputs":[],"outputs":[{"name":"","type":"string","internalType":"string"}],"stateMutability":"view"},{"type":"function","name":"owner","inputs":[],"outputs":[{"name":"","type":"address","internalType":"address"}],"stateMutability":"view"},{"type":"function","name":"redeem","inputs":[{"name":"holder","type":"address","internalType":"address"},{"name":"amount","type":"uint256","internalType":"uint256"}],"outputs":[{"name":"","type":"bool","internalType":"bool"}],"stateMutability":"nonpayable"},{"type":"function","name":"redemptionAgents","inputs":[{"name":"","type":"address","internalType":"address"}],"outputs":[{"name":"","type":"bool","internalType":"bool"}],"stateMutability":"view"},{"type":"function","name":"removeRedemptionAgent","inputs":[{"name":"agent","type":"address","internalType":"address"}],"outputs":[],"stateMutability":"nonpayable"},{"type":"function","name":"removeSalesContract","inputs":[{"name":"salesContract","type":"address","internalType":"address"}],"outputs":[],"stateMutability":"nonpayable"},{"type":"function","name":"renounceOwnership","inputs":[],"outputs":[],"stateMutability":"nonpayable"},{"type":"function","name":"salesContracts","inputs":[{"name":"","type":"address","internalType":"address"}],"outputs":[{"name":"","type":"bool","internalType":"bool"}],"stateMutability":"view"},{"type":"function","name":"symbol","inputs":[],"outputs":[{"name":"","type":"string","internalType":"string"}],"stateMutability":"view"},{"type":"function","name":"totalSupply","inputs":[],"outputs":[{"name":"","type":"uint256","internalType":"uint256"}],"stateMutability":"view"},{"type":"function","name":"transfer","inputs":[{"name":"to","type":"address","internalType":"address"},{"name":"value","type":"uint256","internalType":"uint256"}],"outputs":[{"name":"","type":"bool","internalType":"bool"}],"stateMutability":"nonpayable"},{"type":"function","name":"transferFrom","inputs":[{"name":"from","type":"address","internalType":"address"},{"name":"to","type":"address","internalType":"address"},{"name":"value","type":"uint256","internalType":"uint256"}],"outputs":[{"name":"","type":"bool","internalType":"bool"}],"stateMutability":"nonpayable"},{"type":"function","name":"transferOwnership","inputs":[{"name":"newOwner","type":"address","internalType":"address"}],"outputs":[],"stateMutability":"nonpayable"},{"type":"event","name":"Approval","inputs":[{"name":"owner","type":"address","indexed":true,"internalType":"address"},{"name":"spender","type":"address","indexed":true,"internalType":"address"},{"name":"value","type":"uint256","indexed":false,"internalType":"uint256"}],"anonymous":false},{"type":"event","name":"OwnershipTransferred","inputs":[{"name":"previousOwner","type":"address","indexed":true,"internalType":"address"},{"name":"newOwner","type":"address","indexed":true,"internalType":"address"}],"anonymous":false},{"type":"event","name":"RedemptionAgentAdded","inputs":[{"name":"agent","type":"address","indexed":true,"internalType":"address"}],"anonymous":false},{"type":"event","name":"RedemptionAgentRemoved","inputs":[{"name":"agent","type":"address","indexed":true,"internalType":"address"}],"anonymous":false},{"type":"event","name":"SalesContractAdded","inputs":[{"name":"salesContract","type":"address","indexed":true,"internalType":"address"}],"anonymous":false},{"type":"event","name":"SalesContractRemoved","inputs":[{"name":"salesContract","type":"address","indexed":true,"internalType":"address"}],"anonymous":false},{"type":"event","name":"TicketRedeemed","inputs":[{"name":"holder","type":"address","indexed":true,"internalType":"address"},{"name":"amount","type":"uint256","indexed":false,"internalType":"uint256"}],"anonymous":false},{"type":"event","name":"Transfer","inputs":[{"name":"from","type":"address","indexed":true,"internalType":"address"},{"name":"to","type":"address","indexed":true,"internalType":"address"},{"name":"value","type":"uint256","indexed":false,"internalType":"uint256"}],"anonymous":false},{"type":"error","name":"ERC20InsufficientAllowance","inputs":[{"name":"spender","type":"address","internalType":"address"},{"name":"allowance","type":"uint256","internalType":"uint256"},{"name":"needed","type":"uint256","internalType":"uint256"}]},{"type":"error","name":"ERC20InsufficientBalance","inputs":[{"name":"sender","type":"address","internalType":"address"},{"name":"balance","type":"uint256","internalType":"uint256"},{"name":"needed","type":"uint256","internalType":"uint256"}]},{"type":"error","name":"ERC20InvalidApprover","inputs":[{"name":"approver","type":"address","internalType":"address"}]},{"type":"error","name":"ERC20InvalidReceiver","inputs":[{"name":"receiver","type":"address","internalType":"address"}]},{"type":"error","name":"ERC20InvalidSender","inputs":[{"name":"sender","type":"address","internalType":"address"}]},{"type":"error","name":"ERC20InvalidSpender","inputs":[{"name":"spender","type":"address","internalType":"address"}]},{"type":"error","name":"OwnableInvalidOwner","inputs":[{"name":"owner","type":"address","internalType":"address"}]},{"type":"error","name":"OwnableUnauthorizedAccount","inputs":[{"name":"account","type":"address","internalType":"address"}]}],"bytecode":{"object":"0x608060405234801561000f575f5ffd5b50604051612c80380380612c808339818101604052810190610031919061035b565b33868681600390816100439190610677565b5080600490816100539190610677565b5050505f73ffffffffffffffffffffffffffffffffffffffff168173ffffffffffffffffffffffffffffffffffffffff16036100c6575f6040517f1e4fbdf70000000000000000000000000000000000000000000000000000000081526004016100bd9190610785565b60405180910390fd5b6100d58161011860201b60201c565b5083600890816100e59190610677565b5082600990816100f59190610677565b5081600a90816101059190610677565b5080600b8190555050505050505061079e565b5f60055f9054906101000a900473ffffffffffffffffffffffffffffffffffffffff1690508160055f6101000a81548173ffffffffffffffffffffffffffffffffffffffff021916908373ffffffffffffffffffffffffffffffffffffffff1602179055508173ffffffffffffffffffffffffffffffffffffffff168173ffffffffffffffffffffffffffffffffffffffff167f8be0079c531659141344cd1fd0a4f28419497f9722a3daafe3b4186f6b6457e060405160405180910390a35050565b5f604051905090565b5f5ffd5b5f5ffd5b5f5ffd5b5f5ffd5b5f601f19601f8301169050919050565b7f4e487b71000000000000000000000000000000000000000000000000000000005f52604160045260245ffd5b61023a826101f4565b810181811067ffffffffffffffff8211171561025957610258610204565b5b80604052505050565b5f61026b6101db565b90506102778282610231565b919050565b5f67ffffffffffffffff82111561029657610295610204565b5b61029f826101f4565b9050602081019050919050565b8281835e5f83830152505050565b5f6102cc6102c78461027c565b610262565b9050828152602081018484840111156102e8576102e76101f0565b5b6102f38482856102ac565b509392505050565b5f82601f83011261030f5761030e6101ec565b5b815161031f8482602086016102ba565b91505092915050565b5f819050919050565b61033a81610328565b8114610344575f5ffd5b50565b5f8151905061035581610331565b92915050565b5f5f5f5f5f5f60c08789031215610375576103746101e4565b5b5f87015167ffffffffffffffff811115610392576103916101e8565b5b61039e89828a016102fb565b965050602087015167ffffffffffffffff8111156103bf576103be6101e8565b5b6103cb89828a016102fb565b955050604087015167ffffffffffffffff8111156103ec576103eb6101e8565b5b6103f889828a016102fb565b945050606087015167ffffffffffffffff811115610419576104186101e8565b5b61042589828a016102fb565b935050608087015167ffffffffffffffff811115610446576104456101e8565b5b61045289828a016102fb565b92505060a061046389828a01610347565b9150509295509295509295565b5f81519050919050565b7f4e487b71000000000000000000000000000000000000000000000000000000005f52602260045260245ffd5b5f60028204905060018216806104be57607f821691505b6020821081036104d1576104d061047a565b5b50919050565b5f819050815f5260205f209050919050565b5f6020601f8301049050919050565b5f82821b905092915050565b5f600883026105337fffffffffffffffffffffffffffffffffffffffffffffffffffffffffffffffff826104f8565b61053d86836104f8565b95508019841693508086168417925050509392505050565b5f819050919050565b5f61057861057361056e84610328565b610555565b610328565b9050919050565b5f819050919050565b6105918361055e565b6105a561059d8261057f565b848454610504565b825550505050565b5f5f905090565b6105bc6105ad565b6105c7818484610588565b505050565b5b818110156105ea576105df5f826105b4565b6001810190506105cd565b5050565b601f82111561062f57610600816104d7565b610609846104e9565b81016020851015610618578190505b61062c610624856104e9565b8301826105cc565b50505b505050565b5f82821c905092915050565b5f61064f5f1984600802610634565b1980831691505092915050565b5f6106678383610640565b9150826002028217905092915050565b61068082610470565b67ffffffffffffffff81111561069957610698610204565b5b6106a382546104a7565b6106ae8282856105ee565b5f60209050601f8311600181146106df575f84156106cd578287015190505b6106d7858261065c565b86555061073e565b601f1984166106ed866104d7565b5f5b82811015610714578489015182556001820191506020850194506020810190506106ef565b86831015610731578489015161072d601f891682610640565b8355505b6001600288020188555050505b505050505050565b5f73ffffffffffffffffffffffffffffffffffffffff82169050919050565b5f61076f82610746565b9050919050565b61077f81610765565b82525050565b5f6020820190506107985f830184610776565b92915050565b6124d5806107ab5f395ff3fe608060405234801561000f575f5ffd5b50600436106101a7575f3560e01c80638043c9c0116100f7578063abbdb39311610095578063d5abeb011161006f578063d5abeb01146104f5578063dd62ed3e14610513578063e22bda3514610543578063f2fde38b14610561576101a7565b8063abbdb393146104a1578063afb83846146104bd578063c70d4736146104d9576101a7565b806395d89b41116100d157806395d89b41146103f35780639dc29fac14610411578063a9059cbb14610441578063ab287caf14610471576101a7565b80638043c9c0146103875780638da5cb5b146103a557806393c445b4146103c3576101a7565b8063248b71fc116101645780634bfbe5df1161013e5780634bfbe5df1461031157806370a082311461032f578063715018a61461035f5780637ecc2b5614610369576101a7565b8063248b71fc14610293578063313ce567146102c357806340c10f19146102e1576101a7565b8063010b0c8e146101ab57806306fdde03146101c7578063095ea7b3146101e557806318160ddd146102155780631e9a69501461023357806323b872dd14610263575b5f5ffd5b6101c560048036038101906101c09190611b7d565b61057d565b005b6101cf61061f565b6040516101dc9190611c18565b60405180910390f35b6101ff60048036038101906101fa9190611c6b565b6106af565b60405161020c9190611cc3565b60405180910390f35b61021d6106d1565b60405161022a9190611ceb565b60405180910390f35b61024d60048036038101906102489190611c6b565b6106da565b60405161025a9190611cc3565b60405180910390f35b61027d60048036038101906102789190611d04565b610887565b60405161028a9190611cc3565b60405180910390f35b6102ad60048036038101906102a89190611c6b565b6108b5565b6040516102ba9190611cc3565b60405180910390f35b6102cb610997565b6040516102d89190611d6f565b60405180910390f35b6102fb60048036038101906102f69190611c6b565b61099e565b6040516103089190611cc3565b60405180910390f35b610319610b01565b6040516103269190611c18565b60405180910390f35b61034960048036038101906103449190611b7d565b610b8d565b6040516103569190611ceb565b60405180910390f35b610367610bd2565b005b610371610be5565b60405161037e9190611ceb565b60405180910390f35b61038f610c00565b60405161039c9190611c18565b60405180910390f35b6103ad610c8c565b6040516103ba9190611d97565b60405180910390f35b6103dd60048036038101906103d89190611b7d565b610cb4565b6040516103ea9190611cc3565b60405180910390f35b6103fb610cd1565b6040516104089190611c18565b60405180910390f35b61042b60048036038101906104269190611c6b565b610d61565b6040516104389190611cc3565b60405180910390f35b61045b60048036038101906104569190611c6b565b610eb8565b6040516104689190611cc3565b60405180910390f35b61048b60048036038101906104869190611b7d565b610eda565b6040516104989190611cc3565b60405180910390f35b6104bb60048036038101906104b69190611b7d565b610ef7565b005b6104d760048036038101906104d29190611b7d565b610f99565b005b6104f360048036038101906104ee9190611b7d565b6110aa565b005b6104fd6111bb565b60405161050a9190611ceb565b60405180910390f35b61052d60048036038101906105289190611db0565b6111c1565b60405161053a9190611ceb565b60405180910390f35b61054b611243565b6040516105589190611c18565b60405180910390f35b61057b60048036038101906105769190611b7d565b6112cf565b005b610585611353565b5f60065f8373ffffffffffffffffffffffffffffffffffffffff1673ffffffffffffffffffffffffffffffffffffffff1681526020019081526020015f205f6101000a81548160ff0219169083151502179055508073ffffffffffffffffffffffffffffffffffffffff167f12a33fb272a5ef7ecb29778ce27ae48a61f1641371e49b34c6dc7b5274aa25a060405160405180910390a250565b60606003805461062e90611e1b565b80601f016020809104026020016040519081016040528092919081815260200182805461065a90611e1b565b80156106a55780601f1061067c576101008083540402835291602001916106a5565b820191905f5260205f20905b81548152906001019060200180831161068857829003601f168201915b5050505050905090565b5f5f6106b96113da565b90506106c68185856113e1565b600191505092915050565b5f600254905090565b5f60075f3373ffffffffffffffffffffffffffffffffffffffff1673ffffffffffffffffffffffffffffffffffffffff1681526020019081526020015f205f9054906101000a900460ff16610764576040517f08c379a000000000000000000000000000000000000000000000000000000000815260040161075b90611ebb565b60405180910390fd5b5f73ffffffffffffffffffffffffffffffffffffffff168373ffffffffffffffffffffffffffffffffffffffff16036107d2576040517f08c379a00000000000000000000000000000000000000000000000000000000081526004016107c990611f49565b60405180910390fd5b816107dc84610b8d565b101561081d576040517f08c379a000000000000000000000000000000000000000000000000000000000815260040161081490611fd7565b60405180910390fd5b61082f83610829610c8c565b846113f3565b8273ffffffffffffffffffffffffffffffffffffffff167f04c83e3a48b8728bb2e4bf1933322209bd98584759a94f66ef94275e0bf770de836040516108759190611ceb565b60405180910390a26001905092915050565b5f5f6108916113da565b905061089e8582856114e3565b6108a98585856113f3565b60019150509392505050565b5f6108be611353565b5f73ffffffffffffffffffffffffffffffffffffffff168373ffffffffffffffffffffffffffffffffffffffff160361092c576040517f08c379a000000000000000000000000000000000000000000000000000000000815260040161092390612065565b60405180910390fd5b600b54826109386106d1565b61094291906120b0565b1115610983576040517f08c379a000000000000000000000000000000000000000000000000000000000815260040161097a90612153565b60405180910390fd5b61098d8383611576565b6001905092915050565b5f5f905090565b5f60065f3373ffffffffffffffffffffffffffffffffffffffff1673ffffffffffffffffffffffffffffffffffffffff1681526020019081526020015f205f9054906101000a900460ff16610a28576040517f08c379a0000000000000000000000000000000000000000000000000000000008152600401610a1f906121e1565b60405180910390fd5b5f73ffffffffffffffffffffffffffffffffffffffff168373ffffffffffffffffffffffffffffffffffffffff1603610a96576040517f08c379a0000000000000000000000000000000000000000000000000000000008152600401610a8d90612065565b60405180910390fd5b600b5482610aa26106d1565b610aac91906120b0565b1115610aed576040517f08c379a0000000000000000000000000000000000000000000000000000000008152600401610ae490612153565b60405180910390fd5b610af78383611576565b6001905092915050565b60098054610b0e90611e1b565b80601f0160208091040260200160405190810160405280929190818152602001828054610b3a90611e1b565b8015610b855780601f10610b5c57610100808354040283529160200191610b85565b820191905f5260205f20905b815481529060010190602001808311610b6857829003601f168201915b505050505081565b5f5f5f8373ffffffffffffffffffffffffffffffffffffffff1673ffffffffffffffffffffffffffffffffffffffff1681526020019081526020015f20549050919050565b610bda611353565b610be35f6115f5565b565b5f610bee6106d1565b600b54610bfb91906121ff565b905090565b60088054610c0d90611e1b565b80601f0160208091040260200160405190810160405280929190818152602001828054610c3990611e1b565b8015610c845780601f10610c5b57610100808354040283529160200191610c84565b820191905f5260205f20905b815481529060010190602001808311610c6757829003601f168201915b505050505081565b5f60055f9054906101000a900473ffffffffffffffffffffffffffffffffffffffff16905090565b6007602052805f5260405f205f915054906101000a900460ff1681565b606060048054610ce090611e1b565b80601f0160208091040260200160405190810160405280929190818152602001828054610d0c90611e1b565b8015610d575780601f10610d2e57610100808354040283529160200191610d57565b820191905f5260205f20905b815481529060010190602001808311610d3a57829003601f168201915b5050505050905090565b5f60065f3373ffffffffffffffffffffffffffffffffffffffff1673ffffffffffffffffffffffffffffffffffffffff1681526020019081526020015f205f9054906101000a900460ff16610deb576040517f08c379a0000000000000000000000000000000000000000000000000000000008152600401610de2906121e1565b60405180910390fd5b5f73ffffffffffffffffffffffffffffffffffffffff168373ffffffffffffffffffffffffffffffffffffffff1603610e59576040517f08c379a0000000000000000000000000000000000000000000000000000000008152600401610e50906122a2565b60405180910390fd5b81610e6384610b8d565b1015610ea4576040517f08c379a0000000000000000000000000000000000000000000000000000000008152600401610e9b90612330565b60405180910390fd5b610eae83836116b8565b6001905092915050565b5f5f610ec26113da565b9050610ecf8185856113f3565b600191505092915050565b6006602052805f5260405f205f915054906101000a900460ff1681565b610eff611353565b5f60075f8373ffffffffffffffffffffffffffffffffffffffff1673ffffffffffffffffffffffffffffffffffffffff1681526020019081526020015f205f6101000a81548160ff0219169083151502179055508073ffffffffffffffffffffffffffffffffffffffff167f86eece0ed3d47acfb05a35dc7d3bf886c8f7fc6cd2e3254754ad0f0f0252c51360405160405180910390a250565b610fa1611353565b5f73ffffffffffffffffffffffffffffffffffffffff168173ffffffffffffffffffffffffffffffffffffffff160361100f576040517f08c379a0000000000000000000000000000000000000000000000000000000008152600401611006906123be565b60405180910390fd5b600160075f8373ffffffffffffffffffffffffffffffffffffffff1673ffffffffffffffffffffffffffffffffffffffff1681526020019081526020015f205f6101000a81548160ff0219169083151502179055508073ffffffffffffffffffffffffffffffffffffffff167f8233a161fbff7a28caff3c372f18687a03b5e3db9494cee7a8b144969322209060405160405180910390a250565b6110b2611353565b5f73ffffffffffffffffffffffffffffffffffffffff168173ffffffffffffffffffffffffffffffffffffffff1603611120576040517f08c379a00000000000000000000000000000000000000000000000000000000081526004016111179061244c565b60405180910390fd5b600160065f8373ffffffffffffffffffffffffffffffffffffffff1673ffffffffffffffffffffffffffffffffffffffff1681526020019081526020015f205f6101000a81548160ff0219169083151502179055508073ffffffffffffffffffffffffffffffffffffffff167f1317b38a200356b331352f7fb7abfaa452faf9c039d21f9ebcc47d7972823bde60405160405180910390a250565b600b5481565b5f60015f8473ffffffffffffffffffffffffffffffffffffffff1673ffffffffffffffffffffffffffffffffffffffff1681526020019081526020015f205f8373ffffffffffffffffffffffffffffffffffffffff1673ffffffffffffffffffffffffffffffffffffffff1681526020019081526020015f2054905092915050565b600a805461125090611e1b565b80601f016020809104026020016040519081016040528092919081815260200182805461127c90611e1b565b80156112c75780601f1061129e576101008083540402835291602001916112c7565b820191905f5260205f20905b8154815290600101906020018083116112aa57829003601f168201915b505050505081565b6112d7611353565b5f73ffffffffffffffffffffffffffffffffffffffff168173ffffffffffffffffffffffffffffffffffffffff1603611347575f6040517f1e4fbdf700000000000000000000000000000000000000000000000000000000815260040161133e9190611d97565b60405180910390fd5b611350816115f5565b50565b61135b6113da565b73ffffffffffffffffffffffffffffffffffffffff16611379610c8c565b73ffffffffffffffffffffffffffffffffffffffff16146113d85761139c6113da565b6040517f118cdaa70000000000000000000000000000000000000000000000000000000081526004016113cf9190611d97565b60405180910390fd5b565b5f33905090565b6113ee8383836001611737565b505050565b5f73ffffffffffffffffffffffffffffffffffffffff168373ffffffffffffffffffffffffffffffffffffffff1603611463575f6040517f96c6fd1e00000000000000000000000000000000000000000000000000000000815260040161145a9190611d97565b60405180910390fd5b5f73ffffffffffffffffffffffffffffffffffffffff168273ffffffffffffffffffffffffffffffffffffffff16036114d3575f6040517fec442f050000000000000000000000000000000000000000000000000000000081526004016114ca9190611d97565b60405180910390fd5b6114de838383611906565b505050565b5f6114ee84846111c1565b90507fffffffffffffffffffffffffffffffffffffffffffffffffffffffffffffffff8110156115705781811015611561578281836040517ffb8f41b20000000000000000000000000000000000000000000000000000000081526004016115589392919061246a565b60405180910390fd5b61156f84848484035f611737565b5b50505050565b5f73ffffffffffffffffffffffffffffffffffffffff168273ffffffffffffffffffffffffffffffffffffffff16036115e6575f6040517fec442f050000000000000000000000000000000000000000000000000000000081526004016115dd9190611d97565b60405180910390fd5b6115f15f8383611906565b5050565b5f60055f9054906101000a900473ffffffffffffffffffffffffffffffffffffffff1690508160055f6101000a81548173ffffffffffffffffffffffffffffffffffffffff021916908373ffffffffffffffffffffffffffffffffffffffff1602179055508173ffffffffffffffffffffffffffffffffffffffff168173ffffffffffffffffffffffffffffffffffffffff167f8be0079c531659141344cd1fd0a4f28419497f9722a3daafe3b4186f6b6457e060405160405180910390a35050565b5f73ffffffffffffffffffffffffffffffffffffffff168273ffffffffffffffffffffffffffffffffffffffff1603611728575f6040517f96c6fd1e00000000000000000000000000000000000000000000000000000000815260040161171f9190611d97565b60405180910390fd5b611733825f83611906565b5050565b5f73ffffffffffffffffffffffffffffffffffffffff168473ffffffffffffffffffffffffffffffffffffffff16036117a7575f6040517fe602df0500000000000000000000000000000000000000000000000000000000815260040161179e9190611d97565b60405180910390fd5b5f73ffffffffffffffffffffffffffffffffffffffff168373ffffffffffffffffffffffffffffffffffffffff1603611817575f6040517f94280d6200000000000000000000000000000000000000000000000000000000815260040161180e9190611d97565b60405180910390fd5b8160015f8673ffffffffffffffffffffffffffffffffffffffff1673ffffffffffffffffffffffffffffffffffffffff1681526020019081526020015f205f8573ffffffffffffffffffffffffffffffffffffffff1673ffffffffffffffffffffffffffffffffffffffff1681526020019081526020015f20819055508015611900578273ffffffffffffffffffffffffffffffffffffffff168473ffffffffffffffffffffffffffffffffffffffff167f8c5be1e5ebec7d5bd14f71427d1e84f3dd0314c0f7b2291e5b200ac8c7c3b925846040516118f79190611ceb565b60405180910390a35b50505050565b5f73ffffffffffffffffffffffffffffffffffffffff168373ffffffffffffffffffffffffffffffffffffffff1603611956578060025f82825461194a91906120b0565b92505081905550611a24565b5f5f5f8573ffffffffffffffffffffffffffffffffffffffff1673ffffffffffffffffffffffffffffffffffffffff1681526020019081526020015f20549050818110156119df578381836040517fe450d38c0000000000000000000000000000000000000000000000000000000081526004016119d69392919061246a565b60405180910390fd5b8181035f5f8673ffffffffffffffffffffffffffffffffffffffff1673ffffffffffffffffffffffffffffffffffffffff1681526020019081526020015f2081905550505b5f73ffffffffffffffffffffffffffffffffffffffff168273ffffffffffffffffffffffffffffffffffffffff1603611a6b578060025f8282540392505081905550611ab5565b805f5f8473ffffffffffffffffffffffffffffffffffffffff1673ffffffffffffffffffffffffffffffffffffffff1681526020019081526020015f205f82825401925050819055505b8173ffffffffffffffffffffffffffffffffffffffff168373ffffffffffffffffffffffffffffffffffffffff167fddf252ad1be2c89b69c2b068fc378daa952ba7f163c4a11628f55a4df523b3ef83604051611b129190611ceb565b60405180910390a3505050565b5f5ffd5b5f73ffffffffffffffffffffffffffffffffffffffff82169050919050565b5f611b4c82611b23565b9050919050565b611b5c81611b42565b8114611b66575f5ffd5b50565b5f81359050611b7781611b53565b92915050565b5f60208284031215611b9257611b91611b1f565b5b5f611b9f84828501611b69565b91505092915050565b5f81519050919050565b5f82825260208201905092915050565b8281835e5f83830152505050565b5f601f19601f8301169050919050565b5f611bea82611ba8565b611bf48185611bb2565b9350611c04818560208601611bc2565b611c0d81611bd0565b840191505092915050565b5f6020820190508181035f830152611c308184611be0565b905092915050565b5f819050919050565b611c4a81611c38565b8114611c54575f5ffd5b50565b5f81359050611c6581611c41565b92915050565b5f5f60408385031215611c8157611c80611b1f565b5b5f611c8e85828601611b69565b9250506020611c9f85828601611c57565b9150509250929050565b5f8115159050919050565b611cbd81611ca9565b82525050565b5f602082019050611cd65f830184611cb4565b92915050565b611ce581611c38565b82525050565b5f602082019050611cfe5f830184611cdc565b92915050565b5f5f5f60608486031215611d1b57611d1a611b1f565b5b5f611d2886828701611b69565b9350506020611d3986828701611b69565b9250506040611d4a86828701611c57565b9150509250925092565b5f60ff82169050919050565b611d6981611d54565b82525050565b5f602082019050611d825f830184611d60565b92915050565b611d9181611b42565b82525050565b5f602082019050611daa5f830184611d88565b92915050565b5f5f60408385031215611dc657611dc5611b1f565b5b5f611dd385828601611b69565b9250506020611de485828601611b69565b9150509250929050565b7f4e487b71000000000000000000000000000000000000000000000000000000005f52602260045260245ffd5b5f6002820490506001821680611e3257607f821691505b602082108103611e4557611e44611dee565b5b50919050565b7f4576656e745469636b6574546f6b656e3a2063616c6c6572206973206e6f74205f8201527f6120726564656d7074696f6e206167656e740000000000000000000000000000602082015250565b5f611ea5603283611bb2565b9150611eb082611e4b565b604082019050919050565b5f6020820190508181035f830152611ed281611e99565b9050919050565b7f4576656e745469636b6574546f6b656e3a2072656465656d2066726f6d2074685f8201527f65207a65726f2061646472657373000000000000000000000000000000000000602082015250565b5f611f33602e83611bb2565b9150611f3e82611ed9565b604082019050919050565b5f6020820190508181035f830152611f6081611f27565b9050919050565b7f4576656e745469636b6574546f6b656e3a20696e73756666696369656e7420745f8201527f69636b6574730000000000000000000000000000000000000000000000000000602082015250565b5f611fc1602683611bb2565b9150611fcc82611f67565b604082019050919050565b5f6020820190508181035f830152611fee81611fb5565b9050919050565b7f4576656e745469636b6574546f6b656e3a206d696e7420746f20746865207a655f8201527f726f206164647265737300000000000000000000000000000000000000000000602082015250565b5f61204f602a83611bb2565b915061205a82611ff5565b604082019050919050565b5f6020820190508181035f83015261207c81612043565b9050919050565b7f4e487b71000000000000000000000000000000000000000000000000000000005f52601160045260245ffd5b5f6120ba82611c38565b91506120c583611c38565b92508282019050808211156120dd576120dc612083565b5b92915050565b7f4576656e745469636b6574546f6b656e3a206d617820737570706c79206578635f8201527f6565646564000000000000000000000000000000000000000000000000000000602082015250565b5f61213d602583611bb2565b9150612148826120e3565b604082019050919050565b5f6020820190508181035f83015261216a81612131565b9050919050565b7f4576656e745469636b6574546f6b656e3a2063616c6c6572206973206e6f74205f8201527f612073616c657320636f6e747261637400000000000000000000000000000000602082015250565b5f6121cb603083611bb2565b91506121d682612171565b604082019050919050565b5f6020820190508181035f8301526121f8816121bf565b9050919050565b5f61220982611c38565b915061221483611c38565b925082820390508181111561222c5761222b612083565b5b92915050565b7f4576656e745469636b6574546f6b656e3a206275726e2066726f6d20746865205f8201527f7a65726f20616464726573730000000000000000000000000000000000000000602082015250565b5f61228c602c83611bb2565b915061229782612232565b604082019050919050565b5f6020820190508181035f8301526122b981612280565b9050919050565b7f4576656e745469636b6574546f6b656e3a206275726e20616d6f756e742065785f8201527f63656564732062616c616e636500000000000000000000000000000000000000602082015250565b5f61231a602d83611bb2565b9150612325826122c0565b604082019050919050565b5f6020820190508181035f8301526123478161230e565b9050919050565b7f4576656e745469636b6574546f6b656e3a20696e76616c696420726564656d705f8201527f74696f6e206167656e7420616464726573730000000000000000000000000000602082015250565b5f6123a8603283611bb2565b91506123b38261234e565b604082019050919050565b5f6020820190508181035f8301526123d58161239c565b9050919050565b7f4576656e745469636b6574546f6b656e3a20696e76616c69642073616c6573205f8201527f636f6e7472616374206164647265737300000000000000000000000000000000602082015250565b5f612436603083611bb2565b9150612441826123dc565b604082019050919050565b5f6020820190508181035f8301526124638161242a565b9050919050565b5f60608201905061247d5f830186611d88565b61248a6020830185611cdc565b6124976040830184611cdc565b94935050505056fea264697066735822122096ba41f431667e1b159b0f519b9e892861aa1599782fb1f6d2d3d9afa41b8cfb64736f6c634300081c0033","linkReferences":{}},"methodIdentifiers":{"addRedemptionAgent(address)":"afb83846","addSalesContract(address)":"c70d4736","allowance(address,address)":"dd62ed3e","approve(address,uint256)":"095ea7b3","availableSupply()":"7ecc2b56","balanceOf(address)":"70a08231","burn(address,uint256)":"9dc29fac","decimals()":"313ce567","eventDate()":"4bfbe5df","eventName()":"8043c9c0","eventVenue()":"e22bda35","maxSupply()":"d5abeb01","mint(address,uint256)":"40c10f19","mintBatch(address,uint256)":"248b71fc","name()":"06fdde03","owner()":"8da5cb5b","redeem(address,uint256)":"1e9a6950","redemptionAgents(address)":"93c445b4","removeRedemptionAgent(address)":"abbdb393","removeSalesContract(address)":"010b0c8e","renounceOwnership()":"715018a6","salesContracts(address)":"ab287caf","symbol()":"95d89b41","totalSupply()":"18160ddd","transfer(address,uint256)":"a9059cbb","transferFrom(address,address,uint256)":"23b872dd","transferOwnership(address)":"f2fde38b"},"id":29}