{"abi":[{"type":"constructor","inputs":[{"name":"_ticketToken","type":"address","internalType":"address"},{"name":"_ticketPrice","type":"uint256","internalType":"uint256"},{"name":"_salesDuration","type":"uint256","internalType":"uint256"},{"name":"_refundDuration","type":"uint256","internalType":"uint256"},{"name":"_refundPercentage","type":"uint256","internalType":"uint256"}],"stateMutability":"nonpayable"},{"type":"function","name":"availableTickets","inputs":[],"outputs":[{"name":"","type":"uint256","internalType":"uint256"}],"stateMutability":"view"},{"type":"function","name":"buyTickets","inputs":[{"name":"amount","type":"uint256","internalType":"uint256"}],"outputs":[],"stateMutability":"payable"},{"type":"function","name":"extendDeadlines","inputs":[{"name":"newSalesDuration","type":"uint256","internalType":"uint256"},{"name":"newRefundDuration","type":"uint256","internalType":"uint256"}],"outputs":[],"stateMutability":"nonpayable"},{"type":"function","name":"organizer","inputs":[],"outputs":[{"name":"","type":"address","internalType":"address"}],"stateMutability":"view"},{"type":"function","name":"purchaseTimes","inputs":[{"name":"","type":"address","internalType":"address"}],"outputs":[{"name":"","type":"uint256","internalType":"uint256"}],"stateMutability":"view"},{"type":"function","name":"purchases","inputs":[{"name":"","type":"address","internalType":"address"}],"outputs":[{"name":"","type":"uint256","internalType":"uint256"}],"stateMutability":"view"},{"type":"function","name":"refundEndTime","inputs":[],"outputs":[{"name":"","type":"uint256","internalType":"uint256"}],"stateMutability":"view"},{"type":"function","name":"refundPercentage","inputs":[],"outputs":[{"name":"","type":"uint256","internalType":"uint256"}],"stateMutability":"view"},{"type":"function","name":"refundTickets","inputs":[{"name":"amount","type":"uint256","internalType":"uint256"}],"outputs":[],"stateMutability":"nonpayable"},{"type":"function","name":"remainingRefundTime","inputs":[],"outputs":[{"name":"","type":"uint256","internalType":"uint256"}],"stateMutability":"view"},{"type":"function","name":"remainingSalesTime","inputs":[],"outputs":[{"name":"","type":"uint256","internalType":"uint256"}],"stateMutability":"view"},{"type":"function","name":"salesEndTime","inputs":[],"outputs":[{"name":"","type":"uint256","internalType":"uint256"}],"stateMutability":"view"},{"type":"function","name":"salesPaused","inputs":[],"outputs":[{"name":"","type":"bool","internalType":"bool"}],"stateMutability":"view"},{"type":"function","name":"ticketPrice","inputs":[],"outputs":[{"name":"","type":"uint256","internalType":"uint256"}],"stateMutability":"view"},{"type":"function","name":"ticketToken","inputs":[],"outputs":[{"name":"","type":"address","internalType":"contract EventTicketToken"}],"stateMutability":"view"},{"type":"function","name":"toggleSales","inputs":[{"name":"paused","type":"bool","internalType":"bool"}],"outputs":[],"stateMutability":"nonpayable"},{"type":"function","name":"totalSold","inputs":[],"outputs":[{"name":"","type":"uint256","internalType":"uint256"}],"stateMutability":"view"},{"type":"function","name":"updateTicketPrice","inputs":[{"name":"newPrice","type":"uint256","internalType":"uint256"}],"outputs":[],"stateMutability":"nonpayable"},{"type":"function","name":"withdrawFunds","inputs":[],"outputs":[],"stateMutability":"nonpayable"},{"type":"event","name":"DeadlineExtended","inputs":[{"name":"newSalesEndTime","type":"uint256","indexed":false,"internalType":"uint256"},{"name":"newRefundEndTime","type":"uint256","indexed":false,"internalType":"uint256"}],"anonymous":false},{"type":"event","name":"PriceUpdated","inputs":[{"name":"newPrice","type":"uint256","indexed":false,"internalType":"uint256"}],"anonymous":false},{"type":"event","name":"SalesPaused","inputs":[{"name":"paused","type":"bool","indexed":false,"internalType":"bool"}],"anonymous":false},{"type":"event","name":"TicketsPurchased","inputs":[{"name":"buyer","type":"address","indexed":true,"internalType":"address"},{"name":"amount","type":"uint256","indexed":false,"internalType":"uint256"},{"name":"totalPrice","type":"uint256","indexed":false,"internalType":"uint256"}],"anonymous":false},{"type":"event","name":"TicketsRefunded","inputs":[{"name":"buyer","type":"address","indexed":true,"internalType":"address"},{"name":"amount","type":"uint256","indexed":false,"internalType":"uint256"},{"name":"refundAmount","type":"uint256","indexed":false,"internalType":"uint256"}],"anonymous":false}],"bytecode":{"object":"0x608060405234801561000f575f5ffd5b506040516126bd3803806126bd833981810160405281019061003191906102c0565b5f73ffffffffffffffffffffffffffffffffffffffff168573ffffffffffffffffffffffffffffffffffffffff160361009f576040517f08c379a0000000000000000000000000000000000000000000000000000000008152600401610096906103b7565b60405180910390fd5b5f84116100e1576040517f08c379a00000000000000000000000000000000000000000000000000000000081526004016100d890610445565b60405180910390fd5b5f8311610123576040517f08c379a000000000000000000000000000000000000000000000000000000000815260040161011a906104d3565b60405180910390fd5b5f81118015610133575060648111155b610172576040517f08c379a000000000000000000000000000000000000000000000000000000000815260040161016990610561565b60405180910390fd5b845f5f6101000a81548173ffffffffffffffffffffffffffffffffffffffff021916908373ffffffffffffffffffffffffffffffffffffffff1602179055503360015f6101000a81548173ffffffffffffffffffffffffffffffffffffffff021916908373ffffffffffffffffffffffffffffffffffffffff16021790555083600281905550824261020491906105ac565b6003819055508160035461021891906105ac565b6004819055508060068190555050505050506105df565b5f5ffd5b5f73ffffffffffffffffffffffffffffffffffffffff82169050919050565b5f61025c82610233565b9050919050565b61026c81610252565b8114610276575f5ffd5b50565b5f8151905061028781610263565b92915050565b5f819050919050565b61029f8161028d565b81146102a9575f5ffd5b50565b5f815190506102ba81610296565b92915050565b5f5f5f5f5f60a086880312156102d9576102d861022f565b5b5f6102e688828901610279565b95505060206102f7888289016102ac565b9450506040610308888289016102ac565b9350506060610319888289016102ac565b925050608061032a888289016102ac565b9150509295509295909350565b5f82825260208201905092915050565b7f4576656e745469636b657453616c65733a20696e76616c696420746f6b656e205f8201527f6164647265737300000000000000000000000000000000000000000000000000602082015250565b5f6103a1602783610337565b91506103ac82610347565b604082019050919050565b5f6020820190508181035f8301526103ce81610395565b9050919050565b7f4576656e745469636b657453616c65733a207469636b6574207072696365206d5f8201527f7573742062652067726561746572207468616e207a65726f0000000000000000602082015250565b5f61042f603883610337565b915061043a826103d5565b604082019050919050565b5f6020820190508181035f83015261045c81610423565b9050919050565b7f4576656e745469636b657453616c65733a2073616c6573206475726174696f6e5f8201527f206d7573742062652067726561746572207468616e207a65726f000000000000602082015250565b5f6104bd603a83610337565b91506104c882610463565b604082019050919050565b5f6020820190508181035f8301526104ea816104b1565b9050919050565b7f4576656e745469636b657453616c65733a20726566756e642070657263656e745f8201527f616765206d757374206265206265747765656e203120616e6420313030000000602082015250565b5f61054b603d83610337565b9150610556826104f1565b604082019050919050565b5f6020820190508181035f8301526105788161053f565b9050919050565b7f4e487b71000000000000000000000000000000000000000000000000000000005f52601160045260245ffd5b5f6105b68261028d565b91506105c18361028d565b92508282019050808211156105d9576105d861057f565b5b92915050565b6120d1806105ec5f395ff3fe608060405260043610610113575f3560e01c80634b77ae141161009f5780639106d7ba116100635780639106d7ba1461035f578063b6b9766414610389578063ce275562146103b3578063d5ed4d5a146103dd578063f02137c81461040757610113565b80634b77ae141461027d57806361203265146102a757806373fddd16146102d1578063773dd66c146102fb578063842a77d31461032357610113565b806315de26f0116100e657806315de26f0146101bd57806324600fc3146101f95780632f3666371461020f5780633cfa7e011461022b5780634058db2e1461025557610113565b80630612e51114610117578063069a0523146101415780630a73f8e01461016b5780631209b1f614610193575b5f5ffd5b348015610122575f5ffd5b5061012b61042f565b60405161013891906112df565b60405180910390f35b34801561014c575f5ffd5b50610155610455565b60405161016291906112df565b60405180910390f35b348015610176575f5ffd5b50610191600480360381019061018c9190611331565b61045b565b005b34801561019e575f5ffd5b506101a761053d565b6040516101b491906112df565b60405180910390f35b3480156101c8575f5ffd5b506101e360048036038101906101de91906113b6565b610543565b6040516101f091906112df565b60405180910390f35b348015610204575f5ffd5b5061020d610558565b005b6102296004803603810190610224919061140b565b61073e565b005b348015610236575f5ffd5b5061023f610ade565b60405161024c91906112df565b60405180910390f35b348015610260575f5ffd5b5061027b60048036038101906102769190611436565b610b7c565b005b348015610288575f5ffd5b50610291610cb4565b60405161029e91906112df565b60405180910390f35b3480156102b2575f5ffd5b506102bb610cba565b6040516102c89190611483565b60405180910390f35b3480156102dc575f5ffd5b506102e5610cdf565b6040516102f291906112df565b60405180910390f35b348015610306575f5ffd5b50610321600480360381019061031c919061140b565b610ce5565b005b34801561032e575f5ffd5b50610349600480360381019061034491906113b6565b61113e565b60405161035691906112df565b60405180910390f35b34801561036a575f5ffd5b50610373611153565b60405161038091906112df565b60405180910390f35b348015610394575f5ffd5b5061039d611159565b6040516103aa91906114ab565b60405180910390f35b3480156103be575f5ffd5b506103c761116b565b6040516103d491906112df565b60405180910390f35b3480156103e8575f5ffd5b506103f1611191565b6040516103fe919061151f565b60405180910390f35b348015610412575f5ffd5b5061042d6004803603810190610428919061140b565b6111b5565b005b5f6004544210610441575f9050610452565b4260045461044f9190611565565b90505b90565b60035481565b60015f9054906101000a900473ffffffffffffffffffffffffffffffffffffffff1673ffffffffffffffffffffffffffffffffffffffff163373ffffffffffffffffffffffffffffffffffffffff16146104ea576040517f08c379a00000000000000000000000000000000000000000000000000000000081526004016104e190611618565b60405180910390fd5b8060055f6101000a81548160ff0219169083151502179055507f946daf4cb810fc46854501a3633cf3a64f661faa78a8da7a74d30bb563c143728160405161053291906114ab565b60405180910390a150565b60025481565b6008602052805f5260405f205f915090505481565b60015f9054906101000a900473ffffffffffffffffffffffffffffffffffffffff1673ffffffffffffffffffffffffffffffffffffffff163373ffffffffffffffffffffffffffffffffffffffff16146105e7576040517f08c379a00000000000000000000000000000000000000000000000000000000081526004016105de90611618565b60405180910390fd5b600454421161062b576040517f08c379a0000000000000000000000000000000000000000000000000000000008152600401610622906116a6565b60405180910390fd5b5f4790505f8111610671576040517f08c379a000000000000000000000000000000000000000000000000000000000815260040161066890611734565b60405180910390fd5b5f60015f9054906101000a900473ffffffffffffffffffffffffffffffffffffffff1673ffffffffffffffffffffffffffffffffffffffff16826040516106b79061177f565b5f6040518083038185875af1925050503d805f81146106f1576040519150601f19603f3d011682016040523d82523d5f602084013e6106f6565b606091505b505090508061073a576040517f08c379a000000000000000000000000000000000000000000000000000000000815260040161073190611803565b60405180910390fd5b5050565b60055f9054906101000a900460ff161561078d576040517f08c379a000000000000000000000000000000000000000000000000000000000815260040161078490611891565b60405180910390fd5b6003544211156107d2576040517f08c379a00000000000000000000000000000000000000000000000000000000081526004016107c99061191f565b60405180910390fd5b5f8111610814576040517f08c379a000000000000000000000000000000000000000000000000000000000815260040161080b906119ad565b60405180910390fd5b8060025461082291906119cb565b3414610863576040517f08c379a000000000000000000000000000000000000000000000000000000000815260040161085a90611a7c565b60405180910390fd5b5f5f5f9054906101000a900473ffffffffffffffffffffffffffffffffffffffff1673ffffffffffffffffffffffffffffffffffffffff166370a08231306040518263ffffffff1660e01b81526004016108bd9190611483565b602060405180830381865afa1580156108d8573d5f5f3e3d5ffd5b505050506040513d601f19601f820116820180604052508101906108fc9190611aae565b905080821115610941576040517f08c379a000000000000000000000000000000000000000000000000000000000815260040161093890611b49565b60405180910390fd5b5f5f9054906101000a900473ffffffffffffffffffffffffffffffffffffffff1673ffffffffffffffffffffffffffffffffffffffff1663a9059cbb33846040518363ffffffff1660e01b815260040161099c929190611b67565b6020604051808303815f875af11580156109b8573d5f5f3e3d5ffd5b505050506040513d601f19601f820116820180604052508101906109dc9190611ba2565b508160075f3373ffffffffffffffffffffffffffffffffffffffff1673ffffffffffffffffffffffffffffffffffffffff1681526020019081526020015f205f828254610a299190611bcd565b925050819055504260085f3373ffffffffffffffffffffffffffffffffffffffff1673ffffffffffffffffffffffffffffffffffffffff1681526020019081526020015f20819055508160095f828254610a839190611bcd565b925050819055503373ffffffffffffffffffffffffffffffffffffffff167f7d58f5ddf17a7f65d89554f5d8144ae1dc788046467927063c090f92ed1145dc8334604051610ad2929190611c00565b60405180910390a25050565b5f5f5f9054906101000a900473ffffffffffffffffffffffffffffffffffffffff1673ffffffffffffffffffffffffffffffffffffffff166370a08231306040518263ffffffff1660e01b8152600401610b389190611483565b602060405180830381865afa158015610b53573d5f5f3e3d5ffd5b505050506040513d601f19601f82011682018060405250810190610b779190611aae565b905090565b60015f9054906101000a900473ffffffffffffffffffffffffffffffffffffffff1673ffffffffffffffffffffffffffffffffffffffff163373ffffffffffffffffffffffffffffffffffffffff1614610c0b576040517f08c379a0000000000000000000000000000000000000000000000000000000008152600401610c0290611618565b60405180910390fd5b5f8211610c4d576040517f08c379a0000000000000000000000000000000000000000000000000000000008152600401610c4490611c97565b60405180910390fd5b8142610c599190611bcd565b60038190555080600354610c6d9190611bcd565b6004819055507f073d5fd87a7e0c2a384727f9aab2e84826370623aba582638b425a417e799a2c600354600454604051610ca8929190611c00565b60405180910390a15050565b60065481565b60015f9054906101000a900473ffffffffffffffffffffffffffffffffffffffff1681565b60045481565b600454421115610d2a576040517f08c379a0000000000000000000000000000000000000000000000000000000008152600401610d2190611d25565b60405180910390fd5b5f8111610d6c576040517f08c379a0000000000000000000000000000000000000000000000000000000008152600401610d63906119ad565b60405180910390fd5b5f5f5f9054906101000a900473ffffffffffffffffffffffffffffffffffffffff1673ffffffffffffffffffffffffffffffffffffffff166370a08231336040518263ffffffff1660e01b8152600401610dc69190611483565b602060405180830381865afa158015610de1573d5f5f3e3d5ffd5b505050506040513d601f19601f82011682018060405250810190610e059190611aae565b905081811015610e4a576040517f08c379a0000000000000000000000000000000000000000000000000000000008152600401610e4190611db3565b60405180910390fd5b8160075f3373ffffffffffffffffffffffffffffffffffffffff1673ffffffffffffffffffffffffffffffffffffffff1681526020019081526020015f20541015610eca576040517f08c379a0000000000000000000000000000000000000000000000000000000008152600401610ec190611e41565b60405180910390fd5b5f606460065484600254610ede91906119cb565b610ee891906119cb565b610ef29190611e8c565b905080471015610f37576040517f08c379a0000000000000000000000000000000000000000000000000000000008152600401610f2e90611f2c565b60405180910390fd5b5f5f9054906101000a900473ffffffffffffffffffffffffffffffffffffffff1673ffffffffffffffffffffffffffffffffffffffff166323b872dd3330866040518463ffffffff1660e01b8152600401610f9493929190611f4a565b6020604051808303815f875af1158015610fb0573d5f5f3e3d5ffd5b505050506040513d601f19601f82011682018060405250810190610fd49190611ba2565b508260075f3373ffffffffffffffffffffffffffffffffffffffff1673ffffffffffffffffffffffffffffffffffffffff1681526020019081526020015f205f8282546110219190611565565b925050819055508260095f8282546110399190611565565b925050819055505f3373ffffffffffffffffffffffffffffffffffffffff16826040516110659061177f565b5f6040518083038185875af1925050503d805f811461109f576040519150601f19603f3d011682016040523d82523d5f602084013e6110a4565b606091505b50509050806110e8576040517f08c379a00000000000000000000000000000000000000000000000000000000081526004016110df90611fef565b60405180910390fd5b3373ffffffffffffffffffffffffffffffffffffffff167fb68b407f453fcecb73fe5800caeff134e48073e9d9fdd6f26976c584c9deaf078584604051611130929190611c00565b60405180910390a250505050565b6007602052805f5260405f205f915090505481565b60095481565b60055f9054906101000a900460ff1681565b5f600354421061117d575f905061118e565b4260035461118b9190611565565b90505b90565b5f5f9054906101000a900473ffffffffffffffffffffffffffffffffffffffff1681565b60015f9054906101000a900473ffffffffffffffffffffffffffffffffffffffff1673ffffffffffffffffffffffffffffffffffffffff163373ffffffffffffffffffffffffffffffffffffffff1614611244576040517f08c379a000000000000000000000000000000000000000000000000000000000815260040161123b90611618565b60405180910390fd5b5f8111611286576040517f08c379a000000000000000000000000000000000000000000000000000000000815260040161127d9061207d565b60405180910390fd5b806002819055507f66cbca4f3c64fecf1dcb9ce094abcf7f68c3450a1d4e3a8e917dd621edb4ebe0816040516112bc91906112df565b60405180910390a150565b5f819050919050565b6112d9816112c7565b82525050565b5f6020820190506112f25f8301846112d0565b92915050565b5f5ffd5b5f8115159050919050565b611310816112fc565b811461131a575f5ffd5b50565b5f8135905061132b81611307565b92915050565b5f60208284031215611346576113456112f8565b5b5f6113538482850161131d565b91505092915050565b5f73ffffffffffffffffffffffffffffffffffffffff82169050919050565b5f6113858261135c565b9050919050565b6113958161137b565b811461139f575f5ffd5b50565b5f813590506113b08161138c565b92915050565b5f602082840312156113cb576113ca6112f8565b5b5f6113d8848285016113a2565b91505092915050565b6113ea816112c7565b81146113f4575f5ffd5b50565b5f81359050611405816113e1565b92915050565b5f602082840312156114205761141f6112f8565b5b5f61142d848285016113f7565b91505092915050565b5f5f6040838503121561144c5761144b6112f8565b5b5f611459858286016113f7565b925050602061146a858286016113f7565b9150509250929050565b61147d8161137b565b82525050565b5f6020820190506114965f830184611474565b92915050565b6114a5816112fc565b82525050565b5f6020820190506114be5f83018461149c565b92915050565b5f819050919050565b5f6114e76114e26114dd8461135c565b6114c4565b61135c565b9050919050565b5f6114f8826114cd565b9050919050565b5f611509826114ee565b9050919050565b611519816114ff565b82525050565b5f6020820190506115325f830184611510565b92915050565b7f4e487b71000000000000000000000000000000000000000000000000000000005f52601160045260245ffd5b5f61156f826112c7565b915061157a836112c7565b925082820390508181111561159257611591611538565b5b92915050565b5f82825260208201905092915050565b7f4576656e745469636b657453616c65733a2063616c6c6572206973206e6f74205f8201527f746865206f7267616e697a657200000000000000000000000000000000000000602082015250565b5f611602602d83611598565b915061160d826115a8565b604082019050919050565b5f6020820190508181035f83015261162f816115f6565b9050919050565b7f4576656e745469636b657453616c65733a2063616e6e6f7420776974686472615f8201527f77206265666f726520726566756e6420706572696f6420656e64730000000000602082015250565b5f611690603b83611598565b915061169b82611636565b604082019050919050565b5f6020820190508181035f8301526116bd81611684565b9050919050565b7f4576656e745469636b657453616c65733a206e6f2066756e647320746f2077695f8201527f7468647261770000000000000000000000000000000000000000000000000000602082015250565b5f61171e602683611598565b9150611729826116c4565b604082019050919050565b5f6020820190508181035f83015261174b81611712565b9050919050565b5f81905092915050565b50565b5f61176a5f83611752565b91506117758261175c565b5f82019050919050565b5f6117898261175f565b9150819050919050565b7f4576656e745469636b657453616c65733a207769746864726177616c206661695f8201527f6c65640000000000000000000000000000000000000000000000000000000000602082015250565b5f6117ed602383611598565b91506117f882611793565b604082019050919050565b5f6020820190508181035f83015261181a816117e1565b9050919050565b7f4576656e745469636b657453616c65733a2073616c65732061726520706175735f8201527f6564000000000000000000000000000000000000000000000000000000000000602082015250565b5f61187b602283611598565b915061188682611821565b604082019050919050565b5f6020820190508181035f8301526118a88161186f565b9050919050565b7f4576656e745469636b657453616c65733a2073616c657320706572696f6420685f8201527f617320656e646564000000000000000000000000000000000000000000000000602082015250565b5f611909602883611598565b9150611914826118af565b604082019050919050565b5f6020820190508181035f830152611936816118fd565b9050919050565b7f4576656e745469636b657453616c65733a20616d6f756e74206d7573742062655f8201527f2067726561746572207468616e207a65726f0000000000000000000000000000602082015250565b5f611997603283611598565b91506119a28261193d565b604082019050919050565b5f6020820190508181035f8301526119c48161198b565b9050919050565b5f6119d5826112c7565b91506119e0836112c7565b92508282026119ee816112c7565b91508282048414831517611a0557611a04611538565b5b5092915050565b7f4576656e745469636b657453616c65733a20696e636f727265637420455448205f8201527f616d6f756e742073656e74000000000000000000000000000000000000000000602082015250565b5f611a66602b83611598565b9150611a7182611a0c565b604082019050919050565b5f6020820190508181035f830152611a9381611a5a565b9050919050565b5f81519050611aa8816113e1565b92915050565b5f60208284031215611ac357611ac26112f8565b5b5f611ad084828501611a9a565b91505092915050565b7f4576656e745469636b657453616c65733a206e6f7420656e6f756768207469635f8201527f6b65747320617661696c61626c65000000000000000000000000000000000000602082015250565b5f611b33602e83611598565b9150611b3e82611ad9565b604082019050919050565b5f6020820190508181035f830152611b6081611b27565b9050919050565b5f604082019050611b7a5f830185611474565b611b8760208301846112d0565b9392505050565b5f81519050611b9c81611307565b92915050565b5f60208284031215611bb757611bb66112f8565b5b5f611bc484828501611b8e565b91505092915050565b5f611bd7826112c7565b9150611be2836112c7565b9250828201905080821115611bfa57611bf9611538565b5b92915050565b5f604082019050611c135f8301856112d0565b611c2060208301846112d0565b9392505050565b7f4576656e745469636b657453616c65733a206e65772073616c657320647572615f8201527f74696f6e206d7573742062652067726561746572207468616e207a65726f0000602082015250565b5f611c81603e83611598565b9150611c8c82611c27565b604082019050919050565b5f6020820190508181035f830152611cae81611c75565b9050919050565b7f4576656e745469636b657453616c65733a20726566756e6420706572696f64205f8201527f68617320656e6465640000000000000000000000000000000000000000000000602082015250565b5f611d0f602983611598565b9150611d1a82611cb5565b604082019050919050565b5f6020820190508181035f830152611d3c81611d03565b9050919050565b7f4576656e745469636b657453616c65733a206e6f7420656e6f756768207469635f8201527f6b65747320746f20726566756e64000000000000000000000000000000000000602082015250565b5f611d9d602e83611598565b9150611da882611d43565b604082019050919050565b5f6020820190508181035f830152611dca81611d91565b9050919050565b7f4576656e745469636b657453616c65733a20796f752063616e206f6e6c7920725f8201527f6566756e64207469636b65747320796f75207075726368617365640000000000602082015250565b5f611e2b603b83611598565b9150611e3682611dd1565b604082019050919050565b5f6020820190508181035f830152611e5881611e1f565b9050919050565b7f4e487b71000000000000000000000000000000000000000000000000000000005f52601260045260245ffd5b5f611e96826112c7565b9150611ea1836112c7565b925082611eb157611eb0611e5f565b5b828204905092915050565b7f4576656e745469636b657453616c65733a20696e73756666696369656e7420635f8201527f6f6e74726163742062616c616e636520666f7220726566756e64000000000000602082015250565b5f611f16603a83611598565b9150611f2182611ebc565b604082019050919050565b5f6020820190508181035f830152611f4381611f0a565b9050919050565b5f606082019050611f5d5f830186611474565b611f6a6020830185611474565b611f7760408301846112d0565b949350505050565b7f4576656e745469636b657453616c65733a20726566756e64207472616e7366655f8201527f72206661696c6564000000000000000000000000000000000000000000000000602082015250565b5f611fd9602883611598565b9150611fe482611f7f565b604082019050919050565b5f6020820190508181035f83015261200681611fcd565b9050919050565b7f4576656e745469636b657453616c65733a207469636b6574207072696365206d5f8201527f7573742062652067726561746572207468616e207a65726f0000000000000000602082015250565b5f612067603883611598565b91506120728261200d565b604082019050919050565b5f6020820190508181035f8301526120948161205b565b905091905056fea2646970667358221220e7dee8f4e991f272c87a20a183c175dd4f6bdaf84fa3aa05100200d5f208028064736f6c634300081c0033","linkReferences":{}},"methodIdentifiers":{"availableTickets()":"3cfa7e01","buyTickets(uint256)":"2f366637","extendDeadlines(uint256,uint256)":"4058db2e","organizer()":"61203265","purchaseTimes(address)":"15de26f0","purchases(address)":"842a77d3","refundEndTime()":"73fddd16","refundPercentage()":"4b77ae14","refundTickets(uint256)":"773dd66c","remainingRefundTime()":"0612e511","remainingSalesTime()":"ce275562","salesEndTime()":"069a0523","salesPaused()":"b6b97664","ticketPrice()":"1209b1f6","ticketToken()":"d5ed4d5a","toggleSales(bool)":"0a73f8e0","totalSold()":"9106d7ba","updateTicketPrice(uint256)":"f02137c8","withdrawFunds()":"24600fc3"},"id":24}