{"abi":[{"type":"constructor","inputs":[{"name":"_name","type":"string","internalType":"string"},{"name":"_symbol","type":"string","internalType":"string"},{"name":"_eventName","type":"string","internalType":"string"},{"name":"_eventDate","type":"string","internalType":"string"},{"name":"_eventVenue","type":"string","internalType":"string"},{"name":"_maxSupply","type":"uint256","internalType":"uint256"}],"stateMutability":"nonpayable"},{"type":"function","name":"addSalesContract","inputs":[{"name":"salesContract","type":"address","internalType":"address"}],"outputs":[],"stateMutability":"nonpayable"},{"type":"function","name":"allowance","inputs":[{"name":"tokenOwner","type":"address","internalType":"address"},{"name":"spender","type":"address","internalType":"address"}],"outputs":[{"name":"","type":"uint256","internalType":"uint256"}],"stateMutability":"view"},{"type":"function","name":"approve","inputs":[{"name":"spender","type":"address","internalType":"address"},{"name":"amount","type":"uint256","internalType":"uint256"}],"outputs":[{"name":"","type":"bool","internalType":"bool"}],"stateMutability":"nonpayable"},{"type":"function","name":"availableSupply","inputs":[],"outputs":[{"name":"","type":"uint256","internalType":"uint256"}],"stateMutability":"view"},{"type":"function","name":"balanceOf","inputs":[{"name":"account","type":"address","internalType":"address"}],"outputs":[{"name":"","type":"uint256","internalType":"uint256"}],"stateMutability":"view"},{"type":"function","name":"burn","inputs":[{"name":"from","type":"address","internalType":"address"},{"name":"amount","type":"uint256","internalType":"uint256"}],"outputs":[{"name":"","type":"bool","internalType":"bool"}],"stateMutability":"nonpayable"},{"type":"function","name":"decimals","inputs":[],"outputs":[{"name":"","type":"uint8","internalType":"uint8"}],"stateMutability":"view"},{"type":"function","name":"eventDate","inputs":[],"outputs":[{"name":"","type":"string","internalType":"string"}],"stateMutability":"view"},{"type":"function","name":"eventName","inputs":[],"outputs":[{"name":"","type":"string","internalType":"string"}],"stateMutability":"view"},{"type":"function","name":"eventVenue","inputs":[],"outputs":[{"name":"","type":"string","internalType":"string"}],"stateMutability":"view"},{"type":"function","name":"maxSupply","inputs":[],"outputs":[{"name":"","type":"uint256","internalType":"uint256"}],"stateMutability":"view"},{"type":"function","name":"mint","inputs":[{"name":"to","type":"address","internalType":"address"},{"name":"amount","type":"uint256","internalType":"uint256"}],"outputs":[{"name":"","type":"bool","internalType":"bool"}],"stateMutability":"nonpayable"},{"type":"function","name":"name","inputs":[],"outputs":[{"name":"","type":"string","internalType":"string"}],"stateMutability":"view"},{"type":"function","name":"owner","inputs":[],"outputs":[{"name":"","type":"address","internalType":"address"}],"stateMutability":"view"},{"type":"function","name":"removeSalesContract","inputs":[{"name":"salesContract","type":"address","internalType":"address"}],"outputs":[],"stateMutability":"nonpayable"},{"type":"function","name":"salesContracts","inputs":[{"name":"","type":"address","internalType":"address"}],"outputs":[{"name":"","type":"bool","internalType":"bool"}],"stateMutability":"view"},{"type":"function","name":"symbol","inputs":[],"outputs":[{"name":"","type":"string","internalType":"string"}],"stateMutability":"view"},{"type":"function","name":"totalSupply","inputs":[],"outputs":[{"name":"","type":"uint256","internalType":"uint256"}],"stateMutability":"view"},{"type":"function","name":"transfer","inputs":[{"name":"recipient","type":"address","internalType":"address"},{"name":"amount","type":"uint256","internalType":"uint256"}],"outputs":[{"name":"","type":"bool","internalType":"bool"}],"stateMutability":"nonpayable"},{"type":"function","name":"transferFrom","inputs":[{"name":"sender","type":"address","internalType":"address"},{"name":"recipient","type":"address","internalType":"address"},{"name":"amount","type":"uint256","internalType":"uint256"}],"outputs":[{"name":"","type":"bool","internalType":"bool"}],"stateMutability":"nonpayable"},{"type":"function","name":"transferOwnership","inputs":[{"name":"newOwner","type":"address","internalType":"address"}],"outputs":[],"stateMutability":"nonpayable"},{"type":"event","name":"Approval","inputs":[{"name":"owner","type":"address","indexed":true,"internalType":"address"},{"name":"spender","type":"address","indexed":true,"internalType":"address"},{"name":"value","type":"uint256","indexed":false,"internalType":"uint256"}],"anonymous":false},{"type":"event","name":"SalesContractAdded","inputs":[{"name":"salesContract","type":"address","indexed":true,"internalType":"address"}],"anonymous":false},{"type":"event","name":"SalesContractRemoved","inputs":[{"name":"salesContract","type":"address","indexed":true,"internalType":"address"}],"anonymous":false},{"type":"event","name":"Transfer","inputs":[{"name":"from","type":"address","indexed":true,"internalType":"address"},{"name":"to","type":"address","indexed":true,"internalType":"address"},{"name":"value","type":"uint256","indexed":false,"internalType":"uint256"}],"anonymous":false}],"bytecode":{"object":"0x608060405234801561000f575f5ffd5b506040516127e03803806127e083398181016040528101906100319190610252565b855f908161003f919061056e565b50846001908161004f919061056e565b50836007908161005f919061056e565b50826008908161006f919061056e565b50816009908161007f919061056e565b5080600a819055503360055f6101000a81548173ffffffffffffffffffffffffffffffffffffffff021916908373ffffffffffffffffffffffffffffffffffffffff16021790555050505050505061063d565b5f604051905090565b5f5ffd5b5f5ffd5b5f5ffd5b5f5ffd5b5f601f19601f8301169050919050565b7f4e487b71000000000000000000000000000000000000000000000000000000005f52604160045260245ffd5b610131826100eb565b810181811067ffffffffffffffff821117156101505761014f6100fb565b5b80604052505050565b5f6101626100d2565b905061016e8282610128565b919050565b5f67ffffffffffffffff82111561018d5761018c6100fb565b5b610196826100eb565b9050602081019050919050565b8281835e5f83830152505050565b5f6101c36101be84610173565b610159565b9050828152602081018484840111156101df576101de6100e7565b5b6101ea8482856101a3565b509392505050565b5f82601f830112610206576102056100e3565b5b81516102168482602086016101b1565b91505092915050565b5f819050919050565b6102318161021f565b811461023b575f5ffd5b50565b5f8151905061024c81610228565b92915050565b5f5f5f5f5f5f60c0878903121561026c5761026b6100db565b5b5f87015167ffffffffffffffff811115610289576102886100df565b5b61029589828a016101f2565b965050602087015167ffffffffffffffff8111156102b6576102b56100df565b5b6102c289828a016101f2565b955050604087015167ffffffffffffffff8111156102e3576102e26100df565b5b6102ef89828a016101f2565b945050606087015167ffffffffffffffff8111156103105761030f6100df565b5b61031c89828a016101f2565b935050608087015167ffffffffffffffff81111561033d5761033c6100df565b5b61034989828a016101f2565b92505060a061035a89828a0161023e565b9150509295509295509295565b5f81519050919050565b7f4e487b71000000000000000000000000000000000000000000000000000000005f52602260045260245ffd5b5f60028204905060018216806103b557607f821691505b6020821081036103c8576103c7610371565b5b50919050565b5f819050815f5260205f209050919050565b5f6020601f8301049050919050565b5f82821b905092915050565b5f6008830261042a7fffffffffffffffffffffffffffffffffffffffffffffffffffffffffffffffff826103ef565b61043486836103ef565b95508019841693508086168417925050509392505050565b5f819050919050565b5f61046f61046a6104658461021f565b61044c565b61021f565b9050919050565b5f819050919050565b61048883610455565b61049c61049482610476565b8484546103fb565b825550505050565b5f5f905090565b6104b36104a4565b6104be81848461047f565b505050565b5b818110156104e1576104d65f826104ab565b6001810190506104c4565b5050565b601f821115610526576104f7816103ce565b610500846103e0565b8101602085101561050f578190505b61052361051b856103e0565b8301826104c3565b50505b505050565b5f82821c905092915050565b5f6105465f198460080261052b565b1980831691505092915050565b5f61055e8383610537565b9150826002028217905092915050565b61057782610367565b67ffffffffffffffff8111156105905761058f6100fb565b5b61059a825461039e565b6105a58282856104e5565b5f60209050601f8311600181146105d6575f84156105c4578287015190505b6105ce8582610553565b865550610635565b601f1984166105e4866103ce565b5f5b8281101561060b578489015182556001820191506020850194506020810190506105e6565b868310156106285784890151610624601f891682610537565b8355505b6001600288020188555050505b505050505050565b6121968061064a5f395ff3fe608060405234801561000f575f5ffd5b5060043610610135575f3560e01c80638043c9c0116100b6578063ab287caf1161007a578063ab287caf14610365578063c70d473614610395578063d5abeb01146103b1578063dd62ed3e146103cf578063e22bda35146103ff578063f2fde38b1461041d57610135565b80638043c9c0146102ab5780638da5cb5b146102c957806395d89b41146102e75780639dc29fac14610305578063a9059cbb1461033557610135565b8063313ce567116100fd578063313ce567146101f157806340c10f191461020f5780634bfbe5df1461023f57806370a082311461025d5780637ecc2b561461028d57610135565b8063010b0c8e1461013957806306fdde0314610155578063095ea7b31461017357806318160ddd146101a357806323b872dd146101c1575b5f5ffd5b610153600480360381019061014e919061163b565b610439565b005b61015d610562565b60405161016a91906116d6565b60405180910390f35b61018d60048036038101906101889190611729565b6105ed565b60405161019a9190611781565b60405180910390f35b6101ab610603565b6040516101b891906117a9565b60405180910390f35b6101db60048036038101906101d691906117c2565b61060c565b6040516101e89190611781565b60405180910390f35b6101f96106f0565b604051610206919061182d565b60405180910390f35b61022960048036038101906102249190611729565b6106f4565b6040516102369190611781565b60405180910390f35b610247610918565b60405161025491906116d6565b60405180910390f35b6102776004803603810190610272919061163b565b6109a4565b60405161028491906117a9565b60405180910390f35b6102956109ea565b6040516102a291906117a9565b60405180910390f35b6102b3610a00565b6040516102c091906116d6565b60405180910390f35b6102d1610a8c565b6040516102de9190611855565b60405180910390f35b6102ef610ab1565b6040516102fc91906116d6565b60405180910390f35b61031f600480360381019061031a9190611729565b610b3d565b60405161032c9190611781565b60405180910390f35b61034f600480360381019061034a9190611729565b610d8f565b60405161035c9190611781565b60405180910390f35b61037f600480360381019061037a919061163b565b610da5565b60405161038c9190611781565b60405180910390f35b6103af60048036038101906103aa919061163b565b610dc2565b005b6103b9610f5a565b6040516103c691906117a9565b60405180910390f35b6103e960048036038101906103e4919061186e565b610f60565b6040516103f691906117a9565b60405180910390f35b610407610fe2565b60405161041491906116d6565b60405180910390f35b6104376004803603810190610432919061163b565b61106e565b005b60055f9054906101000a900473ffffffffffffffffffffffffffffffffffffffff1673ffffffffffffffffffffffffffffffffffffffff163373ffffffffffffffffffffffffffffffffffffffff16146104c8576040517f08c379a00000000000000000000000000000000000000000000000000000000081526004016104bf9061191c565b60405180910390fd5b5f60065f8373ffffffffffffffffffffffffffffffffffffffff1673ffffffffffffffffffffffffffffffffffffffff1681526020019081526020015f205f6101000a81548160ff0219169083151502179055508073ffffffffffffffffffffffffffffffffffffffff167f12a33fb272a5ef7ecb29778ce27ae48a61f1641371e49b34c6dc7b5274aa25a060405160405180910390a250565b5f805461056e90611967565b80601f016020809104026020016040519081016040528092919081815260200182805461059a90611967565b80156105e55780601f106105bc576101008083540402835291602001916105e5565b820191905f5260205f20905b8154815290600101906020018083116105c857829003601f168201915b505050505081565b5f6105f93384846111ae565b6001905092915050565b5f600254905090565b5f610618848484611371565b5f60045f8673ffffffffffffffffffffffffffffffffffffffff1673ffffffffffffffffffffffffffffffffffffffff1681526020019081526020015f205f3373ffffffffffffffffffffffffffffffffffffffff1673ffffffffffffffffffffffffffffffffffffffff1681526020019081526020015f20549050828110156106d7576040517f08c379a00000000000000000000000000000000000000000000000000000000081526004016106ce90611a07565b60405180910390fd5b6106e485338584036111ae565b60019150509392505050565b5f81565b5f60065f3373ffffffffffffffffffffffffffffffffffffffff1673ffffffffffffffffffffffffffffffffffffffff1681526020019081526020015f205f9054906101000a900460ff1661077e576040517f08c379a000000000000000000000000000000000000000000000000000000000815260040161077590611a95565b60405180910390fd5b5f73ffffffffffffffffffffffffffffffffffffffff168373ffffffffffffffffffffffffffffffffffffffff16036107ec576040517f08c379a00000000000000000000000000000000000000000000000000000000081526004016107e390611b23565b60405180910390fd5b600a54826002546107fd9190611b6e565b111561083e576040517f08c379a000000000000000000000000000000000000000000000000000000000815260040161083590611c11565b60405180910390fd5b8160025f82825461084f9190611b6e565b925050819055508160035f8573ffffffffffffffffffffffffffffffffffffffff1673ffffffffffffffffffffffffffffffffffffffff1681526020019081526020015f205f8282546108a29190611b6e565b925050819055508273ffffffffffffffffffffffffffffffffffffffff165f73ffffffffffffffffffffffffffffffffffffffff167fddf252ad1be2c89b69c2b068fc378daa952ba7f163c4a11628f55a4df523b3ef8460405161090691906117a9565b60405180910390a36001905092915050565b6008805461092590611967565b80601f016020809104026020016040519081016040528092919081815260200182805461095190611967565b801561099c5780601f106109735761010080835404028352916020019161099c565b820191905f5260205f20905b81548152906001019060200180831161097f57829003601f168201915b505050505081565b5f60035f8373ffffffffffffffffffffffffffffffffffffffff1673ffffffffffffffffffffffffffffffffffffffff1681526020019081526020015f20549050919050565b5f600254600a546109fb9190611c2f565b905090565b60078054610a0d90611967565b80601f0160208091040260200160405190810160405280929190818152602001828054610a3990611967565b8015610a845780601f10610a5b57610100808354040283529160200191610a84565b820191905f5260205f20905b815481529060010190602001808311610a6757829003601f168201915b505050505081565b60055f9054906101000a900473ffffffffffffffffffffffffffffffffffffffff1681565b60018054610abe90611967565b80601f0160208091040260200160405190810160405280929190818152602001828054610aea90611967565b8015610b355780601f10610b0c57610100808354040283529160200191610b35565b820191905f5260205f20905b815481529060010190602001808311610b1857829003601f168201915b505050505081565b5f60065f3373ffffffffffffffffffffffffffffffffffffffff1673ffffffffffffffffffffffffffffffffffffffff1681526020019081526020015f205f9054906101000a900460ff16610bc7576040517f08c379a0000000000000000000000000000000000000000000000000000000008152600401610bbe90611a95565b60405180910390fd5b5f73ffffffffffffffffffffffffffffffffffffffff168373ffffffffffffffffffffffffffffffffffffffff1603610c35576040517f08c379a0000000000000000000000000000000000000000000000000000000008152600401610c2c90611cd2565b60405180910390fd5b8160035f8573ffffffffffffffffffffffffffffffffffffffff1673ffffffffffffffffffffffffffffffffffffffff1681526020019081526020015f20541015610cb5576040517f08c379a0000000000000000000000000000000000000000000000000000000008152600401610cac90611d60565b60405180910390fd5b8160035f8573ffffffffffffffffffffffffffffffffffffffff1673ffffffffffffffffffffffffffffffffffffffff1681526020019081526020015f205f828254610d019190611c2f565b925050819055508160025f828254610d199190611c2f565b925050819055505f73ffffffffffffffffffffffffffffffffffffffff168373ffffffffffffffffffffffffffffffffffffffff167fddf252ad1be2c89b69c2b068fc378daa952ba7f163c4a11628f55a4df523b3ef84604051610d7d91906117a9565b60405180910390a36001905092915050565b5f610d9b338484611371565b6001905092915050565b6006602052805f5260405f205f915054906101000a900460ff1681565b60055f9054906101000a900473ffffffffffffffffffffffffffffffffffffffff1673ffffffffffffffffffffffffffffffffffffffff163373ffffffffffffffffffffffffffffffffffffffff1614610e51576040517f08c379a0000000000000000000000000000000000000000000000000000000008152600401610e489061191c565b60405180910390fd5b5f73ffffffffffffffffffffffffffffffffffffffff168173ffffffffffffffffffffffffffffffffffffffff1603610ebf576040517f08c379a0000000000000000000000000000000000000000000000000000000008152600401610eb690611dee565b60405180910390fd5b600160065f8373ffffffffffffffffffffffffffffffffffffffff1673ffffffffffffffffffffffffffffffffffffffff1681526020019081526020015f205f6101000a81548160ff0219169083151502179055508073ffffffffffffffffffffffffffffffffffffffff167f1317b38a200356b331352f7fb7abfaa452faf9c039d21f9ebcc47d7972823bde60405160405180910390a250565b600a5481565b5f60045f8473ffffffffffffffffffffffffffffffffffffffff1673ffffffffffffffffffffffffffffffffffffffff1681526020019081526020015f205f8373ffffffffffffffffffffffffffffffffffffffff1673ffffffffffffffffffffffffffffffffffffffff1681526020019081526020015f2054905092915050565b60098054610fef90611967565b80601f016020809104026020016040519081016040528092919081815260200182805461101b90611967565b80156110665780601f1061103d57610100808354040283529160200191611066565b820191905f5260205f20905b81548152906001019060200180831161104957829003601f168201915b505050505081565b60055f9054906101000a900473ffffffffffffffffffffffffffffffffffffffff1673ffffffffffffffffffffffffffffffffffffffff163373ffffffffffffffffffffffffffffffffffffffff16146110fd576040517f08c379a00000000000000000000000000000000000000000000000000000000081526004016110f49061191c565b60405180910390fd5b5f73ffffffffffffffffffffffffffffffffffffffff168173ffffffffffffffffffffffffffffffffffffffff160361116b576040517f08c379a000000000000000000000000000000000000000000000000000000000815260040161116290611e7c565b60405180910390fd5b8060055f6101000a81548173ffffffffffffffffffffffffffffffffffffffff021916908373ffffffffffffffffffffffffffffffffffffffff16021790555050565b5f73ffffffffffffffffffffffffffffffffffffffff168373ffffffffffffffffffffffffffffffffffffffff160361121c576040517f08c379a000000000000000000000000000000000000000000000000000000000815260040161121390611f0a565b60405180910390fd5b5f73ffffffffffffffffffffffffffffffffffffffff168273ffffffffffffffffffffffffffffffffffffffff160361128a576040517f08c379a000000000000000000000000000000000000000000000000000000000815260040161128190611f98565b60405180910390fd5b8060045f8573ffffffffffffffffffffffffffffffffffffffff1673ffffffffffffffffffffffffffffffffffffffff1681526020019081526020015f205f8473ffffffffffffffffffffffffffffffffffffffff1673ffffffffffffffffffffffffffffffffffffffff1681526020019081526020015f20819055508173ffffffffffffffffffffffffffffffffffffffff168373ffffffffffffffffffffffffffffffffffffffff167f8c5be1e5ebec7d5bd14f71427d1e84f3dd0314c0f7b2291e5b200ac8c7c3b9258360405161136491906117a9565b60405180910390a3505050565b5f73ffffffffffffffffffffffffffffffffffffffff168373ffffffffffffffffffffffffffffffffffffffff16036113df576040517f08c379a00000000000000000000000000000000000000000000000000000000081526004016113d690612026565b60405180910390fd5b5f73ffffffffffffffffffffffffffffffffffffffff168273ffffffffffffffffffffffffffffffffffffffff160361144d576040517f08c379a0000000000000000000000000000000000000000000000000000000008152600401611444906120b4565b60405180910390fd5b8060035f8573ffffffffffffffffffffffffffffffffffffffff1673ffffffffffffffffffffffffffffffffffffffff1681526020019081526020015f205410156114cd576040517f08c379a00000000000000000000000000000000000000000000000000000000081526004016114c490612142565b60405180910390fd5b8060035f8573ffffffffffffffffffffffffffffffffffffffff1673ffffffffffffffffffffffffffffffffffffffff1681526020019081526020015f205f8282546115199190611c2f565b925050819055508060035f8473ffffffffffffffffffffffffffffffffffffffff1673ffffffffffffffffffffffffffffffffffffffff1681526020019081526020015f205f82825461156c9190611b6e565b925050819055508173ffffffffffffffffffffffffffffffffffffffff168373ffffffffffffffffffffffffffffffffffffffff167fddf252ad1be2c89b69c2b068fc378daa952ba7f163c4a11628f55a4df523b3ef836040516115d091906117a9565b60405180910390a3505050565b5f5ffd5b5f73ffffffffffffffffffffffffffffffffffffffff82169050919050565b5f61160a826115e1565b9050919050565b61161a81611600565b8114611624575f5ffd5b50565b5f8135905061163581611611565b92915050565b5f602082840312156116505761164f6115dd565b5b5f61165d84828501611627565b91505092915050565b5f81519050919050565b5f82825260208201905092915050565b8281835e5f83830152505050565b5f601f19601f8301169050919050565b5f6116a882611666565b6116b28185611670565b93506116c2818560208601611680565b6116cb8161168e565b840191505092915050565b5f6020820190508181035f8301526116ee818461169e565b905092915050565b5f819050919050565b611708816116f6565b8114611712575f5ffd5b50565b5f81359050611723816116ff565b92915050565b5f5f6040838503121561173f5761173e6115dd565b5b5f61174c85828601611627565b925050602061175d85828601611715565b9150509250929050565b5f8115159050919050565b61177b81611767565b82525050565b5f6020820190506117945f830184611772565b92915050565b6117a3816116f6565b82525050565b5f6020820190506117bc5f83018461179a565b92915050565b5f5f5f606084860312156117d9576117d86115dd565b5b5f6117e686828701611627565b93505060206117f786828701611627565b925050604061180886828701611715565b9150509250925092565b5f60ff82169050919050565b61182781611812565b82525050565b5f6020820190506118405f83018461181e565b92915050565b61184f81611600565b82525050565b5f6020820190506118685f830184611846565b92915050565b5f5f60408385031215611884576118836115dd565b5b5f61189185828601611627565b92505060206118a285828601611627565b9150509250929050565b7f4576656e745469636b6574546f6b656e3a2063616c6c6572206973206e6f74205f8201527f746865206f776e65720000000000000000000000000000000000000000000000602082015250565b5f611906602983611670565b9150611911826118ac565b604082019050919050565b5f6020820190508181035f830152611933816118fa565b9050919050565b7f4e487b71000000000000000000000000000000000000000000000000000000005f52602260045260245ffd5b5f600282049050600182168061197e57607f821691505b6020821081036119915761199061193a565b5b50919050565b7f4576656e745469636b6574546f6b656e3a207472616e7366657220616d6f756e5f8201527f74206578636565647320616c6c6f77616e636500000000000000000000000000602082015250565b5f6119f1603383611670565b91506119fc82611997565b604082019050919050565b5f6020820190508181035f830152611a1e816119e5565b9050919050565b7f4576656e745469636b6574546f6b656e3a2063616c6c6572206973206e6f74205f8201527f612073616c657320636f6e747261637400000000000000000000000000000000602082015250565b5f611a7f603083611670565b9150611a8a82611a25565b604082019050919050565b5f6020820190508181035f830152611aac81611a73565b9050919050565b7f4576656e745469636b6574546f6b656e3a206d696e7420746f20746865207a655f8201527f726f206164647265737300000000000000000000000000000000000000000000602082015250565b5f611b0d602a83611670565b9150611b1882611ab3565b604082019050919050565b5f6020820190508181035f830152611b3a81611b01565b9050919050565b7f4e487b71000000000000000000000000000000000000000000000000000000005f52601160045260245ffd5b5f611b78826116f6565b9150611b83836116f6565b9250828201905080821115611b9b57611b9a611b41565b5b92915050565b7f4576656e745469636b6574546f6b656e3a206d617820737570706c79206578635f8201527f6565646564000000000000000000000000000000000000000000000000000000602082015250565b5f611bfb602583611670565b9150611c0682611ba1565b604082019050919050565b5f6020820190508181035f830152611c2881611bef565b9050919050565b5f611c39826116f6565b9150611c44836116f6565b9250828203905081811115611c5c57611c5b611b41565b5b92915050565b7f4576656e745469636b6574546f6b656e3a206275726e2066726f6d20746865205f8201527f7a65726f20616464726573730000000000000000000000000000000000000000602082015250565b5f611cbc602c83611670565b9150611cc782611c62565b604082019050919050565b5f6020820190508181035f830152611ce981611cb0565b9050919050565b7f4576656e745469636b6574546f6b656e3a206275726e20616d6f756e742065785f8201527f63656564732062616c616e636500000000000000000000000000000000000000602082015250565b5f611d4a602d83611670565b9150611d5582611cf0565b604082019050919050565b5f6020820190508181035f830152611d7781611d3e565b9050919050565b7f4576656e745469636b6574546f6b656e3a20696e76616c69642073616c6573205f8201527f636f6e7472616374206164647265737300000000000000000000000000000000602082015250565b5f611dd8603083611670565b9150611de382611d7e565b604082019050919050565b5f6020820190508181035f830152611e0581611dcc565b9050919050565b7f4576656e745469636b6574546f6b656e3a206e6577206f776e657220697320745f8201527f6865207a65726f20616464726573730000000000000000000000000000000000602082015250565b5f611e66602f83611670565b9150611e7182611e0c565b604082019050919050565b5f6020820190508181035f830152611e9381611e5a565b9050919050565b7f4576656e745469636b6574546f6b656e3a20617070726f76652066726f6d20745f8201527f6865207a65726f20616464726573730000000000000000000000000000000000602082015250565b5f611ef4602f83611670565b9150611eff82611e9a565b604082019050919050565b5f6020820190508181035f830152611f2181611ee8565b9050919050565b7f4576656e745469636b6574546f6b656e3a20617070726f766520746f207468655f8201527f207a65726f206164647265737300000000000000000000000000000000000000602082015250565b5f611f82602d83611670565b9150611f8d82611f28565b604082019050919050565b5f6020820190508181035f830152611faf81611f76565b9050919050565b7f4576656e745469636b6574546f6b656e3a207472616e736665722066726f6d205f8201527f746865207a65726f206164647265737300000000000000000000000000000000602082015250565b5f612010603083611670565b915061201b82611fb6565b604082019050919050565b5f6020820190508181035f83015261203d81612004565b9050919050565b7f4576656e745469636b6574546f6b656e3a207472616e7366657220746f2074685f8201527f65207a65726f2061646472657373000000000000000000000000000000000000602082015250565b5f61209e602e83611670565b91506120a982612044565b604082019050919050565b5f6020820190508181035f8301526120cb81612092565b9050919050565b7f4576656e745469636b6574546f6b656e3a207472616e7366657220616d6f756e5f8201527f7420657863656564732062616c616e6365000000000000000000000000000000602082015250565b5f61212c603183611670565b9150612137826120d2565b604082019050919050565b5f6020820190508181035f83015261215981612120565b905091905056fea264697066735822122080d99bcbe6d4672fb4c1693973b60f3968534d5ac7687266cc2faef29d21846b64736f6c634300081c0033","linkReferences":{}},"methodIdentifiers":{"addSalesContract(address)":"c70d4736","allowance(address,address)":"dd62ed3e","approve(address,uint256)":"095ea7b3","availableSupply()":"7ecc2b56","balanceOf(address)":"70a08231","burn(address,uint256)":"9dc29fac","decimals()":"313ce567","eventDate()":"4bfbe5df","eventName()":"8043c9c0","eventVenue()":"e22bda35","maxSupply()":"d5abeb01","mint(address,uint256)":"40c10f19","name()":"06fdde03","owner()":"8da5cb5b","removeSalesContract(address)":"010b0c8e","salesContracts(address)":"ab287caf","symbol()":"95d89b41","totalSupply()":"18160ddd","transfer(address,uint256)":"a9059cbb","transferFrom(address,address,uint256)":"23b872dd","transferOwnership(address)":"f2fde38b"},"id":20}