{"abi":[{"type":"constructor","inputs":[{"name":"_ticketToken","type":"address","internalType":"address"},{"name":"_ticketPrice","type":"uint256","internalType":"uint256"},{"name":"_salesDuration","type":"uint256","internalType":"uint256"},{"name":"_refundDuration","type":"uint256","internalType":"uint256"}],"stateMutability":"nonpayable"},{"type":"function","name":"buyTickets","inputs":[{"name":"amount","type":"uint256","internalType":"uint256"}],"outputs":[],"stateMutability":"payable"},{"type":"function","name":"extendDeadlines","inputs":[{"name":"newSalesDuration","type":"uint256","internalType":"uint256"},{"name":"newRefundDuration","type":"uint256","internalType":"uint256"}],"outputs":[],"stateMutability":"nonpayable"},{"type":"function","name":"organizer","inputs":[],"outputs":[{"name":"","type":"address","internalType":"address"}],"stateMutability":"view"},{"type":"function","name":"purchaseTimes","inputs":[{"name":"","type":"address","internalType":"address"}],"outputs":[{"name":"","type":"uint256","internalType":"uint256"}],"stateMutability":"view"},{"type":"function","name":"purchases","inputs":[{"name":"","type":"address","internalType":"address"}],"outputs":[{"name":"","type":"uint256","internalType":"uint256"}],"stateMutability":"view"},{"type":"function","name":"refundEndTime","inputs":[],"outputs":[{"name":"","type":"uint256","internalType":"uint256"}],"stateMutability":"view"},{"type":"function","name":"refundTickets","inputs":[{"name":"amount","type":"uint256","internalType":"uint256"}],"outputs":[],"stateMutability":"nonpayable"},{"type":"function","name":"remainingRefundTime","inputs":[],"outputs":[{"name":"","type":"uint256","internalType":"uint256"}],"stateMutability":"view"},{"type":"function","name":"remainingSalesTime","inputs":[],"outputs":[{"name":"","type":"uint256","internalType":"uint256"}],"stateMutability":"view"},{"type":"function","name":"salesEndTime","inputs":[],"outputs":[{"name":"","type":"uint256","internalType":"uint256"}],"stateMutability":"view"},{"type":"function","name":"salesPaused","inputs":[],"outputs":[{"name":"","type":"bool","internalType":"bool"}],"stateMutability":"view"},{"type":"function","name":"ticketPrice","inputs":[],"outputs":[{"name":"","type":"uint256","internalType":"uint256"}],"stateMutability":"view"},{"type":"function","name":"ticketToken","inputs":[],"outputs":[{"name":"","type":"address","internalType":"contract EventTicketToken"}],"stateMutability":"view"},{"type":"function","name":"toggleSales","inputs":[{"name":"paused","type":"bool","internalType":"bool"}],"outputs":[],"stateMutability":"nonpayable"},{"type":"function","name":"totalSold","inputs":[],"outputs":[{"name":"","type":"uint256","internalType":"uint256"}],"stateMutability":"view"},{"type":"function","name":"updateTicketPrice","inputs":[{"name":"newPrice","type":"uint256","internalType":"uint256"}],"outputs":[],"stateMutability":"nonpayable"},{"type":"function","name":"withdrawFunds","inputs":[],"outputs":[],"stateMutability":"nonpayable"},{"type":"event","name":"DeadlineExtended","inputs":[{"name":"newSalesEndTime","type":"uint256","indexed":false,"internalType":"uint256"},{"name":"newRefundEndTime","type":"uint256","indexed":false,"internalType":"uint256"}],"anonymous":false},{"type":"event","name":"PriceUpdated","inputs":[{"name":"newPrice","type":"uint256","indexed":false,"internalType":"uint256"}],"anonymous":false},{"type":"event","name":"SalesPaused","inputs":[{"name":"paused","type":"bool","indexed":false,"internalType":"bool"}],"anonymous":false},{"type":"event","name":"TicketsPurchased","inputs":[{"name":"buyer","type":"address","indexed":true,"internalType":"address"},{"name":"amount","type":"uint256","indexed":false,"internalType":"uint256"},{"name":"totalPrice","type":"uint256","indexed":false,"internalType":"uint256"}],"anonymous":false},{"type":"event","name":"TicketsRefunded","inputs":[{"name":"buyer","type":"address","indexed":true,"internalType":"address"},{"name":"amount","type":"uint256","indexed":false,"internalType":"uint256"},{"name":"refundAmount","type":"uint256","indexed":false,"internalType":"uint256"}],"anonymous":false}],"bytecode":{"object":"0x608060405234801561000f575f5ffd5b506040516123ff3803806123ff83398181016040528101906100319190610269565b5f73ffffffffffffffffffffffffffffffffffffffff168473ffffffffffffffffffffffffffffffffffffffff160361009f576040517f08c379a00000000000000000000000000000000000000000000000000000000081526004016100969061034d565b60405180910390fd5b5f83116100e1576040517f08c379a00000000000000000000000000000000000000000000000000000000081526004016100d8906103db565b60405180910390fd5b5f8211610123576040517f08c379a000000000000000000000000000000000000000000000000000000000815260040161011a90610469565b60405180910390fd5b835f5f6101000a81548173ffffffffffffffffffffffffffffffffffffffff021916908373ffffffffffffffffffffffffffffffffffffffff1602179055503360015f6101000a81548173ffffffffffffffffffffffffffffffffffffffff021916908373ffffffffffffffffffffffffffffffffffffffff1602179055508260028190555081426101b591906104b4565b600381905550806003546101c991906104b4565b600481905550505050506104e7565b5f5ffd5b5f73ffffffffffffffffffffffffffffffffffffffff82169050919050565b5f610205826101dc565b9050919050565b610215816101fb565b811461021f575f5ffd5b50565b5f815190506102308161020c565b92915050565b5f819050919050565b61024881610236565b8114610252575f5ffd5b50565b5f815190506102638161023f565b92915050565b5f5f5f5f60808587031215610281576102806101d8565b5b5f61028e87828801610222565b945050602061029f87828801610255565b93505060406102b087828801610255565b92505060606102c187828801610255565b91505092959194509250565b5f82825260208201905092915050565b7f4576656e745469636b657453616c65733a20696e76616c696420746f6b656e205f8201527f6164647265737300000000000000000000000000000000000000000000000000602082015250565b5f6103376027836102cd565b9150610342826102dd565b604082019050919050565b5f6020820190508181035f8301526103648161032b565b9050919050565b7f4576656e745469636b657453616c65733a207469636b6574207072696365206d5f8201527f7573742062652067726561746572207468616e207a65726f0000000000000000602082015250565b5f6103c56038836102cd565b91506103d08261036b565b604082019050919050565b5f6020820190508181035f8301526103f2816103b9565b9050919050565b7f4576656e745469636b657453616c65733a2073616c6573206475726174696f6e5f8201527f206d7573742062652067726561746572207468616e207a65726f000000000000602082015250565b5f610453603a836102cd565b915061045e826103f9565b604082019050919050565b5f6020820190508181035f83015261048081610447565b9050919050565b7f4e487b71000000000000000000000000000000000000000000000000000000005f52601160045260245ffd5b5f6104be82610236565b91506104c983610236565b92508282019050808211156104e1576104e0610487565b5b92915050565b611f0b806104f45f395ff3fe6080604052600436106100fd575f3560e01c806361203265116100945780639106d7ba116100635780639106d7ba146102f5578063b6b976641461031f578063ce27556214610349578063d5ed4d5a14610373578063f02137c81461039d576100fd565b8063612032651461023d57806373fddd1614610267578063773dd66c14610291578063842a77d3146102b9576100fd565b806315de26f0116100d057806315de26f0146101a757806324600fc3146101e35780632f366637146101f95780634058db2e14610215576100fd565b80630612e51114610101578063069a05231461012b5780630a73f8e0146101555780631209b1f61461017d575b5f5ffd5b34801561010c575f5ffd5b506101156103c5565b60405161012291906111ab565b60405180910390f35b348015610136575f5ffd5b5061013f6103eb565b60405161014c91906111ab565b60405180910390f35b348015610160575f5ffd5b5061017b600480360381019061017691906111fd565b6103f1565b005b348015610188575f5ffd5b506101916104d3565b60405161019e91906111ab565b60405180910390f35b3480156101b2575f5ffd5b506101cd60048036038101906101c89190611282565b6104d9565b6040516101da91906111ab565b60405180910390f35b3480156101ee575f5ffd5b506101f76104ee565b005b610213600480360381019061020e91906112d7565b6106d4565b005b348015610220575f5ffd5b5061023b60048036038101906102369190611302565b610a69565b005b348015610248575f5ffd5b50610251610ba1565b60405161025e919061134f565b60405180910390f35b348015610272575f5ffd5b5061027b610bc6565b60405161028891906111ab565b60405180910390f35b34801561029c575f5ffd5b506102b760048036038101906102b291906112d7565b610bcc565b005b3480156102c4575f5ffd5b506102df60048036038101906102da9190611282565b61100a565b6040516102ec91906111ab565b60405180910390f35b348015610300575f5ffd5b5061030961101f565b60405161031691906111ab565b60405180910390f35b34801561032a575f5ffd5b50610333611025565b6040516103409190611377565b60405180910390f35b348015610354575f5ffd5b5061035d611037565b60405161036a91906111ab565b60405180910390f35b34801561037e575f5ffd5b5061038761105d565b60405161039491906113eb565b60405180910390f35b3480156103a8575f5ffd5b506103c360048036038101906103be91906112d7565b611081565b005b5f60045442106103d7575f90506103e8565b426004546103e59190611431565b90505b90565b60035481565b60015f9054906101000a900473ffffffffffffffffffffffffffffffffffffffff1673ffffffffffffffffffffffffffffffffffffffff163373ffffffffffffffffffffffffffffffffffffffff1614610480576040517f08c379a0000000000000000000000000000000000000000000000000000000008152600401610477906114e4565b60405180910390fd5b8060055f6101000a81548160ff0219169083151502179055507f946daf4cb810fc46854501a3633cf3a64f661faa78a8da7a74d30bb563c14372816040516104c89190611377565b60405180910390a150565b60025481565b6007602052805f5260405f205f915090505481565b60015f9054906101000a900473ffffffffffffffffffffffffffffffffffffffff1673ffffffffffffffffffffffffffffffffffffffff163373ffffffffffffffffffffffffffffffffffffffff161461057d576040517f08c379a0000000000000000000000000000000000000000000000000000000008152600401610574906114e4565b60405180910390fd5b60045442116105c1576040517f08c379a00000000000000000000000000000000000000000000000000000000081526004016105b890611572565b60405180910390fd5b5f4790505f8111610607576040517f08c379a00000000000000000000000000000000000000000000000000000000081526004016105fe90611600565b60405180910390fd5b5f60015f9054906101000a900473ffffffffffffffffffffffffffffffffffffffff1673ffffffffffffffffffffffffffffffffffffffff168260405161064d9061164b565b5f6040518083038185875af1925050503d805f8114610687576040519150601f19603f3d011682016040523d82523d5f602084013e61068c565b606091505b50509050806106d0576040517f08c379a00000000000000000000000000000000000000000000000000000000081526004016106c7906116cf565b60405180910390fd5b5050565b60055f9054906101000a900460ff1615610723576040517f08c379a000000000000000000000000000000000000000000000000000000000815260040161071a9061175d565b60405180910390fd5b600354421115610768576040517f08c379a000000000000000000000000000000000000000000000000000000000815260040161075f906117eb565b60405180910390fd5b5f81116107aa576040517f08c379a00000000000000000000000000000000000000000000000000000000081526004016107a190611879565b60405180910390fd5b806002546107b89190611897565b34146107f9576040517f08c379a00000000000000000000000000000000000000000000000000000000081526004016107f090611948565b60405180910390fd5b5f5f5f9054906101000a900473ffffffffffffffffffffffffffffffffffffffff1673ffffffffffffffffffffffffffffffffffffffff16637ecc2b566040518163ffffffff1660e01b8152600401602060405180830381865afa158015610863573d5f5f3e3d5ffd5b505050506040513d601f19601f82011682018060405250810190610887919061197a565b9050808211156108cc576040517f08c379a00000000000000000000000000000000000000000000000000000000081526004016108c390611a15565b60405180910390fd5b5f5f9054906101000a900473ffffffffffffffffffffffffffffffffffffffff1673ffffffffffffffffffffffffffffffffffffffff166340c10f1933846040518363ffffffff1660e01b8152600401610927929190611a33565b6020604051808303815f875af1158015610943573d5f5f3e3d5ffd5b505050506040513d601f19601f820116820180604052508101906109679190611a6e565b508160065f3373ffffffffffffffffffffffffffffffffffffffff1673ffffffffffffffffffffffffffffffffffffffff1681526020019081526020015f205f8282546109b49190611a99565b925050819055504260075f3373ffffffffffffffffffffffffffffffffffffffff1673ffffffffffffffffffffffffffffffffffffffff1681526020019081526020015f20819055508160085f828254610a0e9190611a99565b925050819055503373ffffffffffffffffffffffffffffffffffffffff167f7d58f5ddf17a7f65d89554f5d8144ae1dc788046467927063c090f92ed1145dc8334604051610a5d929190611acc565b60405180910390a25050565b60015f9054906101000a900473ffffffffffffffffffffffffffffffffffffffff1673ffffffffffffffffffffffffffffffffffffffff163373ffffffffffffffffffffffffffffffffffffffff1614610af8576040517f08c379a0000000000000000000000000000000000000000000000000000000008152600401610aef906114e4565b60405180910390fd5b5f8211610b3a576040517f08c379a0000000000000000000000000000000000000000000000000000000008152600401610b3190611b63565b60405180910390fd5b8142610b469190611a99565b60038190555080600354610b5a9190611a99565b6004819055507f073d5fd87a7e0c2a384727f9aab2e84826370623aba582638b425a417e799a2c600354600454604051610b95929190611acc565b60405180910390a15050565b60015f9054906101000a900473ffffffffffffffffffffffffffffffffffffffff1681565b60045481565b600454421115610c11576040517f08c379a0000000000000000000000000000000000000000000000000000000008152600401610c0890611bf1565b60405180910390fd5b5f8111610c53576040517f08c379a0000000000000000000000000000000000000000000000000000000008152600401610c4a90611879565b60405180910390fd5b5f5f5f9054906101000a900473ffffffffffffffffffffffffffffffffffffffff1673ffffffffffffffffffffffffffffffffffffffff166370a08231336040518263ffffffff1660e01b8152600401610cad919061134f565b602060405180830381865afa158015610cc8573d5f5f3e3d5ffd5b505050506040513d601f19601f82011682018060405250810190610cec919061197a565b905081811015610d31576040517f08c379a0000000000000000000000000000000000000000000000000000000008152600401610d2890611c7f565b60405180910390fd5b8160065f3373ffffffffffffffffffffffffffffffffffffffff1673ffffffffffffffffffffffffffffffffffffffff1681526020019081526020015f20541015610db1576040517f08c379a0000000000000000000000000000000000000000000000000000000008152600401610da890611d0d565b60405180910390fd5b5f82600254610dc09190611897565b905080471015610e05576040517f08c379a0000000000000000000000000000000000000000000000000000000008152600401610dfc90611d9b565b60405180910390fd5b5f5f9054906101000a900473ffffffffffffffffffffffffffffffffffffffff1673ffffffffffffffffffffffffffffffffffffffff16639dc29fac33856040518363ffffffff1660e01b8152600401610e60929190611a33565b6020604051808303815f875af1158015610e7c573d5f5f3e3d5ffd5b505050506040513d601f19601f82011682018060405250810190610ea09190611a6e565b508260065f3373ffffffffffffffffffffffffffffffffffffffff1673ffffffffffffffffffffffffffffffffffffffff1681526020019081526020015f205f828254610eed9190611431565b925050819055508260085f828254610f059190611431565b925050819055505f3373ffffffffffffffffffffffffffffffffffffffff1682604051610f319061164b565b5f6040518083038185875af1925050503d805f8114610f6b576040519150601f19603f3d011682016040523d82523d5f602084013e610f70565b606091505b5050905080610fb4576040517f08c379a0000000000000000000000000000000000000000000000000000000008152600401610fab90611e29565b60405180910390fd5b3373ffffffffffffffffffffffffffffffffffffffff167fb68b407f453fcecb73fe5800caeff134e48073e9d9fdd6f26976c584c9deaf078584604051610ffc929190611acc565b60405180910390a250505050565b6006602052805f5260405f205f915090505481565b60085481565b60055f9054906101000a900460ff1681565b5f6003544210611049575f905061105a565b426003546110579190611431565b90505b90565b5f5f9054906101000a900473ffffffffffffffffffffffffffffffffffffffff1681565b60015f9054906101000a900473ffffffffffffffffffffffffffffffffffffffff1673ffffffffffffffffffffffffffffffffffffffff163373ffffffffffffffffffffffffffffffffffffffff1614611110576040517f08c379a0000000000000000000000000000000000000000000000000000000008152600401611107906114e4565b60405180910390fd5b5f8111611152576040517f08c379a000000000000000000000000000000000000000000000000000000000815260040161114990611eb7565b60405180910390fd5b806002819055507f66cbca4f3c64fecf1dcb9ce094abcf7f68c3450a1d4e3a8e917dd621edb4ebe08160405161118891906111ab565b60405180910390a150565b5f819050919050565b6111a581611193565b82525050565b5f6020820190506111be5f83018461119c565b92915050565b5f5ffd5b5f8115159050919050565b6111dc816111c8565b81146111e6575f5ffd5b50565b5f813590506111f7816111d3565b92915050565b5f60208284031215611212576112116111c4565b5b5f61121f848285016111e9565b91505092915050565b5f73ffffffffffffffffffffffffffffffffffffffff82169050919050565b5f61125182611228565b9050919050565b61126181611247565b811461126b575f5ffd5b50565b5f8135905061127c81611258565b92915050565b5f60208284031215611297576112966111c4565b5b5f6112a48482850161126e565b91505092915050565b6112b681611193565b81146112c0575f5ffd5b50565b5f813590506112d1816112ad565b92915050565b5f602082840312156112ec576112eb6111c4565b5b5f6112f9848285016112c3565b91505092915050565b5f5f60408385031215611318576113176111c4565b5b5f611325858286016112c3565b9250506020611336858286016112c3565b9150509250929050565b61134981611247565b82525050565b5f6020820190506113625f830184611340565b92915050565b611371816111c8565b82525050565b5f60208201905061138a5f830184611368565b92915050565b5f819050919050565b5f6113b36113ae6113a984611228565b611390565b611228565b9050919050565b5f6113c482611399565b9050919050565b5f6113d5826113ba565b9050919050565b6113e5816113cb565b82525050565b5f6020820190506113fe5f8301846113dc565b92915050565b7f4e487b71000000000000000000000000000000000000000000000000000000005f52601160045260245ffd5b5f61143b82611193565b915061144683611193565b925082820390508181111561145e5761145d611404565b5b92915050565b5f82825260208201905092915050565b7f4576656e745469636b657453616c65733a2063616c6c6572206973206e6f74205f8201527f746865206f7267616e697a657200000000000000000000000000000000000000602082015250565b5f6114ce602d83611464565b91506114d982611474565b604082019050919050565b5f6020820190508181035f8301526114fb816114c2565b9050919050565b7f4576656e745469636b657453616c65733a2063616e6e6f7420776974686472615f8201527f77206265666f726520726566756e6420706572696f6420656e64730000000000602082015250565b5f61155c603b83611464565b915061156782611502565b604082019050919050565b5f6020820190508181035f83015261158981611550565b9050919050565b7f4576656e745469636b657453616c65733a206e6f2066756e647320746f2077695f8201527f7468647261770000000000000000000000000000000000000000000000000000602082015250565b5f6115ea602683611464565b91506115f582611590565b604082019050919050565b5f6020820190508181035f830152611617816115de565b9050919050565b5f81905092915050565b50565b5f6116365f8361161e565b915061164182611628565b5f82019050919050565b5f6116558261162b565b9150819050919050565b7f4576656e745469636b657453616c65733a207769746864726177616c206661695f8201527f6c65640000000000000000000000000000000000000000000000000000000000602082015250565b5f6116b9602383611464565b91506116c48261165f565b604082019050919050565b5f6020820190508181035f8301526116e6816116ad565b9050919050565b7f4576656e745469636b657453616c65733a2073616c65732061726520706175735f8201527f6564000000000000000000000000000000000000000000000000000000000000602082015250565b5f611747602283611464565b9150611752826116ed565b604082019050919050565b5f6020820190508181035f8301526117748161173b565b9050919050565b7f4576656e745469636b657453616c65733a2073616c657320706572696f6420685f8201527f617320656e646564000000000000000000000000000000000000000000000000602082015250565b5f6117d5602883611464565b91506117e08261177b565b604082019050919050565b5f6020820190508181035f830152611802816117c9565b9050919050565b7f4576656e745469636b657453616c65733a20616d6f756e74206d7573742062655f8201527f2067726561746572207468616e207a65726f0000000000000000000000000000602082015250565b5f611863603283611464565b915061186e82611809565b604082019050919050565b5f6020820190508181035f83015261189081611857565b9050919050565b5f6118a182611193565b91506118ac83611193565b92508282026118ba81611193565b915082820484148315176118d1576118d0611404565b5b5092915050565b7f4576656e745469636b657453616c65733a20696e636f727265637420455448205f8201527f616d6f756e742073656e74000000000000000000000000000000000000000000602082015250565b5f611932602b83611464565b915061193d826118d8565b604082019050919050565b5f6020820190508181035f83015261195f81611926565b9050919050565b5f81519050611974816112ad565b92915050565b5f6020828403121561198f5761198e6111c4565b5b5f61199c84828501611966565b91505092915050565b7f4576656e745469636b657453616c65733a206e6f7420656e6f756768207469635f8201527f6b65747320617661696c61626c65000000000000000000000000000000000000602082015250565b5f6119ff602e83611464565b9150611a0a826119a5565b604082019050919050565b5f6020820190508181035f830152611a2c816119f3565b9050919050565b5f604082019050611a465f830185611340565b611a53602083018461119c565b9392505050565b5f81519050611a68816111d3565b92915050565b5f60208284031215611a8357611a826111c4565b5b5f611a9084828501611a5a565b91505092915050565b5f611aa382611193565b9150611aae83611193565b9250828201905080821115611ac657611ac5611404565b5b92915050565b5f604082019050611adf5f83018561119c565b611aec602083018461119c565b9392505050565b7f4576656e745469636b657453616c65733a206e65772073616c657320647572615f8201527f74696f6e206d7573742062652067726561746572207468616e207a65726f0000602082015250565b5f611b4d603e83611464565b9150611b5882611af3565b604082019050919050565b5f6020820190508181035f830152611b7a81611b41565b9050919050565b7f4576656e745469636b657453616c65733a20726566756e6420706572696f64205f8201527f68617320656e6465640000000000000000000000000000000000000000000000602082015250565b5f611bdb602983611464565b9150611be682611b81565b604082019050919050565b5f6020820190508181035f830152611c0881611bcf565b9050919050565b7f4576656e745469636b657453616c65733a206e6f7420656e6f756768207469635f8201527f6b65747320746f20726566756e64000000000000000000000000000000000000602082015250565b5f611c69602e83611464565b9150611c7482611c0f565b604082019050919050565b5f6020820190508181035f830152611c9681611c5d565b9050919050565b7f4576656e745469636b657453616c65733a20796f752063616e206f6e6c7920725f8201527f6566756e64207469636b65747320796f75207075726368617365640000000000602082015250565b5f611cf7603b83611464565b9150611d0282611c9d565b604082019050919050565b5f6020820190508181035f830152611d2481611ceb565b9050919050565b7f4576656e745469636b657453616c65733a20696e73756666696369656e7420635f8201527f6f6e74726163742062616c616e636520666f7220726566756e64000000000000602082015250565b5f611d85603a83611464565b9150611d9082611d2b565b604082019050919050565b5f6020820190508181035f830152611db281611d79565b9050919050565b7f4576656e745469636b657453616c65733a20726566756e64207472616e7366655f8201527f72206661696c6564000000000000000000000000000000000000000000000000602082015250565b5f611e13602883611464565b9150611e1e82611db9565b604082019050919050565b5f6020820190508181035f830152611e4081611e07565b9050919050565b7f4576656e745469636b657453616c65733a207469636b6574207072696365206d5f8201527f7573742062652067726561746572207468616e207a65726f0000000000000000602082015250565b5f611ea1603883611464565b9150611eac82611e47565b604082019050919050565b5f6020820190508181035f830152611ece81611e95565b905091905056fea2646970667358221220fa0b662defedad6b949cacc31dbb404dfc2d61a9259fe486b7b1c883d7c9848564736f6c634300081c0033","linkReferences":{}},"methodIdentifiers":{"buyTickets(uint256)":"2f366637","extendDeadlines(uint256,uint256)":"4058db2e","organizer()":"61203265","purchaseTimes(address)":"15de26f0","purchases(address)":"842a77d3","refundEndTime()":"73fddd16","refundTickets(uint256)":"773dd66c","remainingRefundTime()":"0612e511","remainingSalesTime()":"ce275562","salesEndTime()":"069a0523","salesPaused()":"b6b97664","ticketPrice()":"1209b1f6","ticketToken()":"d5ed4d5a","toggleSales(bool)":"0a73f8e0","totalSold()":"9106d7ba","updateTicketPrice(uint256)":"f02137c8","withdrawFunds()":"24600fc3"},"id":19}